:10000000EAC01EC103C102C101C100C1F6C7FEC0E2
:10001000FDC0FCC0FBC0FAC0F9C0F8C0F7C0F6C014
:10002000F5C0F4C0F3C0040309047003770077003F
:1000300077002E006D0069006B0072006F00630096
:100040006F006E00740072006F006C006C00650041
:1000500072002E006E00650074002F0061007200B7
:100060007400690063006C00650073002F00550088
:10007000530042005F00490052005F0052006500DB
:100080006D006F00740065005F0052006500630042
:10009000650069007600650072002E03550053006C
:1000A00042002000490052002000520065006D000F
:1000B0006F00740065002000520065006300650059
:1000C000690076006500720012011001000000084E
:1000D000C016DF050801010200010902220001012A
:1000E00000800A0904000001030000000921010149
:1000F000000122620007058103080064010A0E0462
:1001000008040804080F14000F140001000202097B
:100110000919020902090010102020010100020241
:100120000909190209020900000000000101000389
:100130000308091403080207001015252501010012
:1001400004040D0F26040D040D0C18000C180101F9
:100150000005010708110107010700101C283001E4
:1001600001000802040F15020406090005050F0F1F
:1001700001000005010B010000FFA101150026FF91
:100180000075088501950609008200018502950128
:100190000900B20201850395060900B20201850437
:1001A00095010900B20201850595060900B2020118
:1001B000850695020900B20201850795040900B27F
:1001C0000201850895010900B2020185099501091E
:1001D00000B20201C00011241FBECFE5D4E0DEBF93
:1001E000CDBF10E0A0E6B0E0EAE8F4E102C005907F
:1001F0000D92AC37B107D9F711E0ACE7B0E001C020
:100200001D92A730B107E1F749D83DC9F9CEA82F13
:10021000B92F80E090E041E050EA609530E009C0FD
:100220002D9182279795879510F084279527305E2A
:10023000C8F36F5FA8F30895EADF8D939D93089547
:10024000CF93CFB7CF93C395809BE9F7809B09C02D
:10025000809B07C0809B05C0809B03C0809B01C022
:10026000A3C0DF93C091EA00DD27CF50DF4F809B12
:1002700002C0DF91EBCF2F930F931F9300B32FEFAB
:1002800000FB20F94F933F9310B34FEF012700FB82
:1002900021F93BE031C04E7F012F10B3216028C00F
:1002A000102F4D7F2260000000B329C04B7F2460D7
:1002B000012F000010B32BC010B3477F28602AC065
:1002C0004F7E00B320612CC04F7D10B320622FC041
:1002D0004F7B00B3206432C0422700B349934FEFF5
:1002E0000000102710FB20F910B31570C9F1297F09
:1002F00091F2012700FB21F900B3237F89F23150ED
:1003000058F1102710FB22F910B3277E79F201274C
:1003100000FB23F92F7C81F200B3102710FB24F996
:100320002F7971F200C010B3012700FB25F92F735C
:1003300059F200C000B3102710FB26F9223040F21A
:1003400000C010B3012700FB27F9243028F64F77AF
:10035000206810B30000F9CF10E41ABF002719C0BD
:100360003B503195C31BD04010E41ABF0881033CB9
:10037000F9F00B34E9F02091E8001981110F121304
:10038000EDCF4A81441F093641F10D3211F0013E93
:1003900029F70093EF003F914F911F910F912F91FB
:1003A000DF91CAB7C6FD4FCFCF91CFBFCF91189580
:1003B0002091EF00222379F31091ED00112369F5CC
:1003C00034306AF13093ED002093E9001091EA0097
:1003D0003BE0311B3093EA0022C00091ED00013078
:1003E000E4F40AE54F7049F43091600034FD19C01F
:1003F00000936000C1EDD0E018C03091DC0034FD06
:1004000010C00093DC00CDEDD0E00FC02795A8F41C
:100410005150A9F4220F0000F9CF4AE503C042ED84
:1004200001C0432FC4E1D0E032E011B31560909ACF
:1004300011BB02B320E415E05F93012756E002BB35
:10044000279520F4515021F4220FF9CF012756E0CF
:1004500000003B5A02BBD0F2279528F4515029F4F2
:10046000220F0000F9CF012756E0279502BB20F4A8
:10047000515021F4220FF9CF012756E0299133235F
:1004800002BB21F60A7F1091EE00110FC651D04039
:1004900002BB11F01093E80010E41ABF016011B321
:1004A0001A7F402F4A7F5F9100C000C002BB11BB82
:1004B00042BB71CF1F93162F2091DC0024FF07C091
:1004C0002091DD0038E823272093DD0003C02AE5D2
:1004D0002093DC00DC01812F815090E081529F4FFE
:1004E000EEEDF0E02D912193E817F907D9F78EEDA5
:1004F00090E0612FA1DE1C5F1093DC001F91089536
:100500001F93CF93DF936091ED00635067FDC4C0EC
:100510008091EA00CCE0D0E0C81BD109CF50DF4F7A
:100520008091E9008D3209F0A5C0683009F0B2C0B1
:1005300083EC8093D1008AE58093600010927C0068
:100540008881807631F0CE0102D68F3F09F481C0D8
:1005500087C09A811092DA008981882331F4109241
:10056000DB002AED30E082E06FC0853019F4909313
:10057000EE0067C0863009F04EC08B81813041F4B7
:1005800088EC90E09093EC008093EB0082E13FC018
:10059000823041F48AED90E09093EC008093EB0080
:1005A00082E235C08330F1F4992341F486E290E091
:1005B0009093EC008093EB0084E029C0913041F4EB
:1005C0008AE290E09093EC008093EB0080E71FC0FC
:1005D0009230E1F48AE990E09093EC008093EB0094
:1005E0008EE215C0813241F48CEE90E09093EC00E5
:1005F0008093EB0089E00BC0823241F483E791E005
:100600009093EC008093EB0082E601C080E090E4E0
:1006100090937C0025C0883069F0893019F490935C
:10062000F0000FC08A3049F08B3059F48BE480938E
:10063000DD0007C020EF30E002C02AED30E081E0AD
:1006400003C02AED30E080E03093EC002093EB0013
:1006500007C0988197FD8E8190E890937C0007C039
:100660009F81992321F49E81981708F4892F809304
:10067000610010C080917C0087FF0CC0CE010CD5BA
:100680008F3F21F48EE18093600004C0882311F035
:10069000109261001092ED008091600084FF5BC0B9
:1006A000809161008F3F09F456C0182F893008F0FF
:1006B00018E0811B809361008091D10098E8892720
:1006C0008093D1001123B1F180917C0087FF08C095
:1006D00082ED90E0612FB5D4182F8930B0F52AC093
:1006E0002091EB003091EC00412F415086FF0EC06D
:1006F00050E0EA01CD52DF4FF901A2EDB0E0849164
:100700008D933196AC17BD07D1F70CC0D90150E0DD
:10071000CA018D529F4FE2EDF0E06D916193E817B1
:10072000F907D9F74F5F5F4F420F531F5093EC000B
:100730004093EB0082ED90E0612F7EDD1C5F1C306A
:1007400041F08FEF8093610004C08FEF80936100D0
:100750001EE11093600084E190B3957031F48150F4
:10076000D9F71092EE001092E800DF91CF911F911F
:10077000089585B7826085BF8BB780648BBF8BE49B
:100780008093DD008AE58093DC000895E09182008B
:1007900090918C00E91738F120918D00E21718F53F
:1007A00060919200282F30E04091800050918100AC
:1007B000662381F06E2F70E0691B710902C0220F61
:1007C000331F6A95E2F7242B352B30938100209359
:1007D000800067C0440F551F422B532B509381005C
:1007E000409380005EC090918E00E91708F120913F
:1007F0008F00E217E8F460919200282F30E04091DA
:100800007E0050917F00662351F06E2F70E0691BCF
:10081000710902C0220F331F6A95E2F73CC0440FF2
:10082000551F422B532B50937F0040937E0039C0BD
:10083000909183009330D1F4E13198F1E53188F55E
:10084000482F50E02E2F30E02151304002C0440F9D
:10085000551F2A95E2F72091940030919500242BA2
:10086000352B30939500209394001BC09530C9F42C
:10087000E431B8F0E831A8F4482F50E02E2F30E0F2
:100880002850304002C0440F551F2A95E2F72091AE
:100890007E0030917F00242B352B30937F002093F6
:1008A0007E0090918300953049F5E03338F52E2F86
:1008B00030E0E695E695E695882381F0F0E0E45691
:1008C000FF4F2770307081E090E002C0880F991FC1
:1008D0002A95E2F72081282B208310C0F0E0E4560F
:1008E000FF4F2770307081E090E002C0880F991FA1
:1008F0002A95E2F7809590818923808380918200F8
:100900008F5F80938200089594988C980895FC01DD
:1009100080917D00882309F47EC08091960082300A
:1009200051F1833009F055C08091990090919A005F
:100930002091990030919A00892F99272095309520
:1009400030708217930709F062C0809199009091EE
:100950009A00907090939A0080939900209199004A
:1009600030919A008091A2009091A300982F88273F
:10097000822B932B2AC08091990090919A0020910C
:10098000990030919A00892F9927209530953070E1
:1009900082179307A9F0809197009091980027E81B
:1009A0008E3E9207A1F58BE080939600809199008E
:1009B00090919A00892F992790939800809397009F
:1009C0008091990090919A00907090939A008093F2
:1009D0009900809196008083809197009091980073
:1009E000928381838091990090919A00948383836C
:1009F00080919B00858310929A001092990010922A
:100A000098001092970010929B0081E001C080E056
:100A100010927D00089580E0089580B390917D004C
:100A2000992309F0CBC280719091AD00992371F5A3
:100A30009091AA00882321F49F5F9093AA00BEC2E0
:100A40009923A9F081E08093AD008093AB001092D0
:100A5000AC0010927F0010927E00109281001092E4
:100A600080009FEF909382008093A900A7C280919D
:100A7000A7009091A8002FEF8F3F920709F49EC224
:100A800001969093A8008093A70098C29091AB0024
:100A9000992309F49CC0882349F08091A9008F5FB5
:100AA0008093A900863A08F46AC1F1C02091AA0097
:100AB000822F8551873050F48091A90090E08430D6
:100AC000910524F0883091050CF44DC0822F855398
:100AD0008B3488F48091A90090E08A3191052CF044
:100AE000813491050CF442C003C08C3091051CF098
:100AF00081329105F4F1822F87528C3048F4809135
:100B0000A90090E0873291051CF083339105A4F190
:100B1000822F8B51813148F48091A90090E08B3174
:100B200091051CF08C32910554F1822F8D518A3041
:100B300048F48091A90090E08E3091051CF0853139
:100B4000910504F12250233048F48091A900982F98
:100B50009F509730D0F086508430B8F01092AD009E
:100B600060E070E014C06CEF70E011C06DE071E007
:100B70000EC06EE171E00BC06FE271E008C060E48E
:100B800071E005C061E571E002C062E671E080914C
:100B9000AD00882329F083E890E041E150E02ED4B5
:100BA0001092820080918300883049F48091A900DE
:100BB0008F50873010F481E001C080E0E7DD81E0F4
:100BC0008093AA001092A9001092AB00D8C0909117
:100BD000AC00992309F4C6C0882309F45FC0409192
:100BE000820080919000481799F490919100913083
:100BF00079F48091AA0090918800891708F447C081
:100C000090918900981708F442C010929100B7C0E3
:100C10009091A9009F5F9093A900209183002130BB
:100C200021F5292F30E029303105FCF04B30E8F078
:100C3000842F8F5F80939000842F90E00B97382F44
:100C400022278091800090918100822B932B90939A
:100C500081008093800080918E00840F8F5F80934D
:100C60008F0087E08093A90019C0963A08F487C0E6
:100C7000242F30E090E001972817390741F4809144
:100C80009100882321F44F5F4093820078C0109236
:100C9000AD001092AA001092A90071C0809183004B
:100CA000833069F580918200803149F58091AA00F6
:100CB0008350863008F050C02091A900822F90E028
:100CC000873291056CF08333910554F41092AC0097
:100CD000109295001092940081E18093820040C0B0
:100CE0008AE08093830080E180938E0080E280938D
:100CF0008F008093900029502C3048F514C08091CB
:100D0000AA0090918400891780F09091850098172F
:100D100060F09091A90020918600921730F0209108
:100D20008700291710F081E013C09091880089177F
:100D300098F090918900981778F08091A90090918F
:100D40008A00891748F090918B00981728F080E06E
:100D50001DDD1092AC0004C01092AD001092A900ED
:100D600081E005C0882331F48091AA008F5F8093D1
:100D7000AA0005C081E08093AC008093A900809117
:100D8000AD00882309F41AC170918200809190000F
:100D9000781709F013C180919100882309F00EC1E2
:100DA000809162009091630020917E0030917F00DD
:100DB0008217930771F44091A7005091A80063E057
:100DC0004032560730F44091A6004F5F4093A60092
:100DD00002C01092A60060918300613031F440910E
:100DE000A6004150423098F40DC0653029F440917E
:100DF000A600413061F406C06A3049F44091A60073
:100E000040FF05C01092A8001092A70096C041E0D4
:100E100040937D00683029F5C901809590959370C5
:100E20004091A4005091A5008417950799F49093E0
:100E30007F0080937E006093960020918000309127
:100E40008100309398002093970090939A008093AC
:100E5000990073C010927D003093A5002093A400E8
:100E60006CC0623009F5772309F047C02091A700D4
:100E70003091A80044E0203B3407E8F5209164005D
:100E800030916500309381002093800090937F0023
:100E900080937E0080919B00816080939B001092E4
:100EA000A8001092A70029C0653039F590919C00E8
:100EB00080919D0040919E00292F22952F709F7058
:100EC0002927982F9F70292782958F70282730E037
:100ED000842F90E08F7090702817390711F01092CE
:100EE0007D0080919F0084279091A0008927909198
:100EF000A100891711F010927D00609396008091F7
:100F000080009091810090939800809397006230C8
:100F100021F4909365008093640080917E0090910D
:100F20007F0090939A008093990080919400909113
:100F300095009093A3008093A20080917D00882368
:100F400099F180917E0090917F0020916200309114
:100F5000630028173907C1F440916400509165007F
:100F600020918000309181004217530769F420914D
:100F7000A7003091A80065E02C3D360728F42091A9
:100F80009B00216020939B00209180003091810084
:100F90003093650020936400909363008093620017
:100FA0001092A8001092A7001092AD0010927F003E
:100FB00010927E001092AA001092A90080917D00EC
:100FC000089589E08EBD8FEA94E09BBD8ABD80E1E3
:100FD00089BF08958FEF88BB17BA85BB14BA82BB4F
:100FE00011BA82B395E0892782BB85B390E2892745
:100FF00085BB84B3892784BB089578941F920F9290
:101000000FB60F9211242F933F934F935F936F93DB
:101010007F938F939F93AF93BF93EF93FF93FDDCE9
:10102000FF91EF91BF91AF919F918F917F916F91C0
:101030005F914F913F912F910F900FBE0F901F9096
:1010400018951F93CF93DF93162FC091CC00D091AA
:10105000CD00262F30E0C217D30708F41C2F2091B3
:10106000CF00273049F42091CE0030E024543F4F88
:10107000B901412F50E0D8D18091CE00810F8093EB
:10108000CE00C11BD109D093CD00C093CC00812FDD
:10109000DF91CF911F9108951F93CF93DF93EC01C0
:1010A000162F8091CC009091CD00009709F44AC092
:1010B000262F30E08217930708F4182F8091D00074
:1010C000843061F46091CE00CE01019670E0412F32
:1010D00050E0C3D18981809379001FC0853081F4AD
:1010E00021966091CE00CE0170E0412F50E0B5D145
:1010F000E5EBF0E086E0099001928150E1F70DC048
:10110000883059F46091CE00CE01019670E0412FF5
:1011100050E0A3D1898180937A008091CE00810F25
:101120008093CE002091CC003091CD00211B31095D
:101130003093CD002093CC0081E02115310519F0CA
:1011400080E001C081E0DF91CF911F910895FC0103
:1011500080818076803209F06FC081818130C9F54D
:101160008CEB90E09093EC008093EB002281223096
:1011700051F42093BC00019660E070E041E050E043
:101180005CD182E00895233051F42093BC00019695
:1011900061E070E046E050E050D187E008952730EC
:1011A00009F04AC02093BC00DC011196E6E6F0E0AD
:1011B0008BE001900D928150E1F78BE090E09093ED
:1011C000CD008093CC001092CE0087E08093CF00BA
:1011D00027C0893089F52281243049F481E090E0EC
:1011E0009093CD008093CC001092CE0017C0253094
:1011F00051F486E090E09093CD008093CC0081E0A4
:101200008093CE000BC0283069F487E08093CE0035
:1012100081E090E09093CD008093CC002093D000AB
:101220008FEF0895293051F48BE790E068E070E08B
:1012300041E050E012D1FFCF80E0089580E00895B2
:101240008091B40080FD03C01092BB0005C0809166
:10125000BB008F5F8093BB009091BB0080917A00B0
:10126000981718F4992319F008958093BB0081E032
:101270008093BC00ADEBB0E0EFEAF0E086E00190D7
:101280000D928150E1F701C03BD98091DC0084FFD1
:10129000FBCF8CEB90E067E00DD908951F93DF93AF
:1012A000CF930F92CDB7DEB788E10FB6F89481BD2A
:1012B00011BC0FBE8EEA90E068E070E041E050E0C3
:1012C000CCD02EE088E190E00FB6F894A89581BDCF
:1012D0000FBE21BD7FDE86E0EFEAF0E0DF01982F50
:1012E0001D929A95E9F7E5EBF0E0DF011D928A95F2
:1012F000E9F70ADB66DE889A198207C0A89587E9B4
:101300009AE30197F1F700C0000089818150898339
:101310008823A1F788982DDA7894CE01019660E0B1
:1013200070E041E050E089D089818F3F41F489E746
:1013300090E060E070E041E050E08FD002C0809328
:101340007900CE01019667E070E041E050E075D091
:1013500089818F3F41F48AE790E067E070E041E0E7
:1013600050E07BD002C080937A0085EB90E061E092
:1013700070E046E050E061D010E2A8958FEA90E07E
:10138000C6DA8823C9F18091B50081508E3F20F5DF
:10139000809179008823F1F08FEA90E065EB70E0AE
:1013A00045E050E034D00097A9F485B3812785BB90
:1013B00008C0A895A5D8ABEDB5E01197F1F700C02E
:1013C0000000898181508983882399F785B381271B
:1013D00085BB12C035DF10C08FEA90E061E070E09D
:1013E00046E050E03AD0A5EBB0E0EFEAF0E086E06E
:1013F00001900D928150E1F783D8BFCFFB01DC0152
:1014000002C005900D9241505040D8F70895FB015D
:10141000DC0104C08D910190801921F441505040AD
:10142000C8F7881B990B0895FB01DC0102C00190ED
:101430000D9241505040D8F70895DC01CB01FC01DA
:10144000E199FECF06C0FFBBEEBBE09A31960DB22C
:101450000D9241505040B8F70895DC01CB0102C015
:101460002D9105D041505040D8F70895262FE1998D
:10147000FECF9FBB8EBB2DBB0FB6F894E29AE19ACC
:0A1480000FBE01960895F894FFCF07
:10148A005AFFFFFFFFFF32302E30392E3230313112
:0C149A0000010203040507080901050118
:00000001FF
