:10000000F3C027C10CC10BC10AC109C16EC807C129
:1000100006C105C104C103C102C101C100C1FFC0C5
:10002000FEC0FDC0FCC00403090470037700770024
:1000300077002E006D0069006B0072006F00630096
:100040006F006E00740072006F006C006C00650041
:1000500072002E006E00650074002F0061007200B7
:100060007400690063006C00650073002F00550088
:10007000530042005F00490052005F0052006500DB
:100080006D006F00740065005F0052006500630042
:10009000650069007600650072002E03550053006C
:1000A00042002000490052002000520065006D000F
:1000B0006F00740065002000520065006300650059
:1000C000690076006500720012011001000000084E
:1000D000C016DF050801010200010902220001012A
:1000E00000800A0904000001030000000921010149
:1000F000000122750007058103080064010A0E044F
:1001000008040804080F14000F140001000202097B
:100110000919020902090010102020010100020241
:100120000909190209020900000000000101000389
:100130000308091403080207001015252501010012
:1001400004040D0F26040D040D0C18000C180101F9
:100150000005010708110107010700101C283001E4
:1001600001000802040F15020406090005050F0F1F
:1001700001000005010B010000FFA101150026FF91
:100180000075088501950609008200018502950128
:100190000900B20201850395060900B20201850437
:1001A00095010900B20201850595060900B2020118
:1001B000850695020900B20201850795040900B27F
:1001C0000201850895010900B2020185099501091E
:1001D00000B20201850A95020900820001850B9692
:1001E000BC020900B20201C011241FBECFE5D4E059
:1001F000DEBFCDBF10E0A0E6B0E0E8ECF5E102C064
:1002000005900D92AE37B107D9F713E0AEE7B0E035
:1002100001C01D92AA3CB107E1F7DFD8D3C9F0CEE7
:10022000A82FB92F80E090E041E050EA609530E0DF
:1002300009C02D9182279795879510F084279527DF
:10024000305EC8F36F5FA8F30895EADF8D939D9346
:100250000895CF93CFB7CF93C395809BE9F7809B49
:1002600009C0809B07C0809B05C0809B03C0809B0A
:1002700001C0A3C0DF93C091F100DD27C850DF4F5C
:10028000809B02C0DF91EBCF2F930F931F9300B39E
:100290002FEF00FB20F94F933F9310B34FEF01274F
:1002A00000FB21F93BE031C04E7F012F10B32160EC
:1002B00028C0102F4D7F2260000000B329C04B7F63
:1002C0002460012F000010B32BC010B3477F2860BB
:1002D0002AC04F7E00B320612CC04F7D10B3206236
:1002E0002FC04F7B00B3206432C0422700B3499334
:1002F0004FEF0000102710FB20F910B31570C9F163
:10030000297F91F2012700FB21F900B3237F89F2B5
:10031000315058F1102710FB22F910B3277E79F2E3
:10032000012700FB23F92F7C81F200B3102710FB7B
:1003300024F92F7971F200C010B3012700FB25F9D1
:100340002F7359F200C000B3102710FB26F922309A
:1003500040F200C010B3012700FB27F9243028F633
:100360004F77206810B30000F9CF10E41ABF0027C0
:1003700019C03B503195C31BD04010E41ABF08810F
:10038000033CF9F00B34E9F02091EF001981110FD3
:100390001213EDCF4A81441F093641F10D3211F09D
:1003A000013E29F70093F6003F914F911F910F9165
:1003B0002F91DF91CAB7C6FD4FCFCF91CFBFCF915D
:1003C00018952091F600222379F31091F40011235F
:1003D00069F534306AF13093F4002093F000109105
:1003E000F1003BE0311B3093F10022C00091F4009A
:1003F0000130E4F40AE54F7049F43091600034FDB7
:1004000019C000936000C8EDD0E018C03091E3003F
:1004100034FD10C00093E300C4EED0E00FC0279578
:10042000A8F45150A9F4220F0000F9CF4AE503C007
:1004300042ED01C0432FC4E1D0E032E011B31560BA
:10044000909A11BB02B320E415E05F93012756E0B8
:1004500002BB279520F4515021F4220FF9CF012738
:1004600056E000003B5A02BBD0F2279528F45150C9
:1004700029F4220F0000F9CF012756E0279502BB8F
:1004800020F4515021F4220FF9CF012756E0299191
:10049000332302BB21F60A7F1091F500110FC651DC
:1004A000D04002BB11F01093EF0010E41ABF0160BE
:1004B00011B31A7F402F4A7F5F9100C000C002BB7A
:1004C00011BB42BB71CF1F93162F2091E30024FF75
:1004D00007C02091E40038E823272093E40003C0FC
:1004E0002AE52093E300DC01812F815090E08A51BE
:1004F0009F4FE5EEF0E02D912193E817F907D9F72A
:1005000085EE90E0612FA1DE1C5F1093E3001F9148
:1005100008951F93CF93DF936091F400635067FDBC
:10052000C4C08091F100CCE0D0E0C81BD109C85014
:10053000DF4F8091F0008D3209F0A5C0683009F0DE
:10054000B2C083EC8093D8008AE58093600010925B
:100550007E008881807631F0CE0179D68F3F09F414
:1005600081C087C09A811092E1008981882331F48B
:100570001092E20021EE30E082E06FC0853019F485
:100580009093F50067C0863009F04EC08B818130B2
:1005900041F488EC90E09093F3008093F20082E1C4
:1005A0003FC0823041F48AED90E09093F300809355
:1005B000F20082E235C08330F1F4992341F486E2FF
:1005C00090E09093F3008093F20084E029C0913092
:1005D00041F48AE290E09093F3008093F20080E788
:1005E0001FC09230E1F48AE990E09093F300809389
:1005F000F2008EE215C0813241F48CEE90E09093CF
:10060000F3008093F20089E00BC0823241F483E76B
:1006100091E09093F3008093F20085E701C080E0C1
:1006200090E490937E0025C0883069F0893019F4F9
:100630009093F7000FC08A3049F08B3059F48BE467
:100640008093E40007C027EF30E002C021EE30E0E5
:1006500081E003C021EE30E080E03093F30020938E
:10066000F20007C0988197FD8E8190E890937E00FC
:1006700007C09F81992321F49E81981708F4892F40
:100680008093610010C080917E0087FF0CC0CE0176
:1006900083D58F3F21F48EE18093600004C08823CE
:1006A00011F0109261001092F4008091600084FFBC
:1006B0005BC0809161008F3F09F456C0182F8930CC
:1006C00008F018E0811B809361008091D80098E8C1
:1006D00089278093D8001123B1F180917E0087FF94
:1006E00008C089ED90E0612F24D5182F8930B0F52E
:1006F0002AC02091F2003091F300412F415086FF33
:100700000EC050E0EA01C652DF4FF901A9EDB0E09A
:1007100084918D933196AC17BD07D1F70CC0D901E8
:1007200050E0CA0186529F4FE9EDF0E06D91619370
:10073000E817F907D9F74F5F5F4F420F531F5093E8
:10074000F3004093F20089ED90E0612F7EDD1C5FA5
:100750001C3041F08FEF8093610004C08FEF8093D5
:1007600061001EE11093600084E190B3957031F454
:100770008150D9F71092F5001092EF00DF91CF91E0
:100780001F91089585B7826085BF8BB780648BBF4A
:100790008BE48093E4008AE58093E3000895E09180
:1007A000840090918E00E91738F120918F00E217B4
:1007B00018F560919400282F30E04091820050910C
:1007C0008300662381F06E2F70E0691B710902C0FF
:1007D000220F331F6A95E2F7242B352B30938300C9
:1007E0002093820067C0440F551F422B532B509318
:1007F0008300409382005EC090919000E91708F159
:1008000020919100E217E8F460919400282F30E0E5
:100810004091800050918100662351F06E2F70E06E
:10082000691B710902C0220F331F6A95E2F73CC0B1
:10083000440F551F422B532B50938100409380004F
:1008400039C0909185009330D1F4E13198F1E531D0
:1008500088F5482F50E02E2F30E02151304002C063
:10086000440F551F2A95E2F720919600309197008A
:10087000242B352B30939700209396001BC0953086
:10088000C9F4E431B8F0E831A8F4482F50E02E2F35
:1008900030E02850304002C0440F551F2A95E2F73F
:1008A0002091800030918100242B352B30938100E2
:1008B0002093800090918500953049F5E03338F51C
:1008C0002E2F30E0E695E695E695882381F0F0E05E
:1008D000E256FF4F2770307081E090E002C0880F31
:1008E000991F2A95E2F72081282B208310C0F0E081
:1008F000E256FF4F2770307081E090E002C0880F11
:10090000991F2A95E2F780959081892380838091B1
:1009100084008F5F80938400089594988C98089544
:10092000FC0180917F00882309F47EC080919800AB
:10093000823051F1833009F055C080919B00909135
:100940009C0020919B0030919C00892F9927209535
:10095000309530708217930709F062C080919B0038
:1009600090919C00907090939C0080939B002091AC
:100970009B0030919C008091A4009091A500982F3D
:100980008827822B932B2AC080919B0090919C00FA
:1009900020919B0030919C00892F992720953095BC
:1009A000307082179307A9F08091990090919A0076
:1009B00027E88E3E9207A1F58BE080939800809106
:1009C0009B0090919C00892F992790939A00809387
:1009D000990080919B0090919C00907090939C0056
:1009E00080939B00809198008083809199009091E2
:1009F0009A009283818380919B0090919C009483C4
:100A0000838380919D00858310929C0010929B00AF
:100A100010929A001092990010929D0081E001C0FE
:100A200080E010927F00089580E008951F9380B3C6
:100A3000182F107184FD0EC02091B200223050F4A6
:100A40008091B3009091B400009721F42F5F209320
:100A5000B2005CC01092B200112339F08091B30053
:100A60009091B400009709F451C08091B300909127
:100A7000B40025E1803E920750F5FC0163E0F69555
:100A8000E7956A95E1F7AC0147705070112369F062
:100A9000E25FFE4F21E030E002C0220F331F4A9593
:100AA000E2F74081422B40830DC0E25FFE4F21E020
:100AB00030E002C0220F331F4A95E2F720953081C3
:100AC0002323208301969093B4008093B3001123D5
:100AD000C9F08091B0009091B10001969093B1005F
:100AE0008093B00043E0893E940780F08091B3008A
:100AF0009091B400845D93405ED41092B400109243
:100B0000B30004C01092B1001092B00080917F0039
:100B1000882309F0CAC28091AF00882371F58091C3
:100B2000AC00112321F48F5F8093AC00BEC28823F8
:100B3000A9F081E08093AF008093AD001092AE00E9
:100B40001092810010928000109283001092820017
:100B50009FEF909384008093AB00A7C28091A9007F
:100B60009091AA006FEF8F3F960709F49EC20196FD
:100B70009093AA008093A90098C28091AD00882329
:100B800009F49CC0112349F08091AB008F5F8093E2
:100B9000AB00863A08F46AC1F1C02091AC00822F04
:100BA0008551873050F48091AB0090E084309105FE
:100BB00024F0883091050CF44DC0822F85538B347E
:100BC00088F48091AB0090E08A3191052CF081345B
:100BD00091050CF442C003C08C3091051CF08132A9
:100BE0009105F4F1822F87528C3048F48091AB004C
:100BF00090E0873291051CF083339105A4F1822F98
:100C00008B51813148F48091AB0090E08B3191059C
:100C10001CF08C32910554F1822F8D518A3048F4AA
:100C20008091AB0090E08E3091051CF085319105EC
:100C300004F12250233048F48091AB00982F9F504C
:100C40009730D0F086508430B8F01092AF0060E05A
:100C500070E014C06CEF70E011C06DE071E00EC088
:100C60006EE171E00BC06FE271E008C060E471E01A
:100C700005C061E571E002C062E671E08091AF00FD
:100C8000882329F085E890E041E150E056D41092A5
:100C9000840080918500883049F48091AB008F50AA
:100CA000873010F481E001C080E079DD81E080933D
:100CB000AC001092AB001092AD00D8C08091AE0095
:100CC000882309F4C6C0112309F45FC04091840051
:100CD00080919200481799F490919300913079F4A3
:100CE0008091AC0090918A00891708F447C09091D8
:100CF0008B00981708F442C010929300B7C09091EF
:100D0000AB009F5F9093AB0020918500213021F5CF
:100D1000292F30E029303105FCF04B30E8F0842FEA
:100D20008F5F80939200842F90E00B97382F2227BB
:100D30008091820090918300822B932B909383006B
:100D40008093820080919000840F8F5F8093910048
:100D500087E08093AB0019C0963A08F487C0242F2F
:100D600030E090E001972817390741F48091930013
:100D7000882321F44F5F4093840078C01092AF0025
:100D80001092AC001092AB0071C08091850083304E
:100D900069F580918400803149F58091AC008350E1
:100DA000863008F050C02091AB00822F90E087324F
:100DB00091056CF08333910554F41092AE001092BB
:100DC00097001092960081E18093840040C08AE0F1
:100DD0008093850080E18093900080E28093910071
:100DE0008093920029502C3048F514C08091AC00BB
:100DF00090918600891780F090918700981760F095
:100E00009091AB0020918800921730F020918900DA
:100E1000291710F081E013C090918A00891798F08B
:100E200090918B00981778F08091AB0090918C0096
:100E3000891748F090918D00981728F080E0AFDC7A
:100E40001092AE0004C01092AF001092AB0081E08F
:100E500005C0112331F48091AC008F5F8093AC000A
:100E600005C081E08093AE008093AB008091AF001D
:100E7000882309F41AC17091840080919200781738
:100E800009F013C180919300882309F00EC180916D
:100E90006200909163002091800030918100821760
:100EA000930771F44091A9005091AA0063E0403289
:100EB000560730F44091A8004F5F4093A80002C04D
:100EC0001092A80060918500613031F44091A80033
:100ED0004150423098F40DC0653029F44091A8008B
:100EE000413061F406C06A3049F44091A80040FFE7
:100EF00005C01092AA001092A90096C041E040934C
:100F00007F00683029F5C9018095909593704091D4
:100F1000A6005091A7008417950799F4909381003B
:100F2000809380006093980020918200309183002C
:100F300030939A002093990090939C0080939B009B
:100F400073C010927F003093A7002093A6006CC05E
:100F5000623009F5772309F047C02091A90030914C
:100F6000AA0044E0203B3407E8F52091640030916A
:100F700065003093830020938200909381008093DA
:100F8000800080919D00816080939D001092AA0056
:100F90001092A90029C0653039F590919E0080918A
:100FA0009F004091A000292F22952F709F70292724
:100FB000982F9F70292782958F70282730E0842FE3
:100FC00090E08F7090702817390711F010927F0011
:100FD0008091A10084279091A20089279091A3007D
:100FE000891711F010927F00609398008091820021
:100FF0009091830090939A0080939900623021F43D
:1010000090936500809364008091800090918100AE
:1010100090939C0080939B00809196009091970004
:101020009093A5008093A40080917F00882399F17C
:101030008091800090918100209162003091630046
:1010400028173907C1F44091640050916500209140
:101050008200309183004217530769F42091A90060
:101060003091AA0065E02C3D360728F420919D00C0
:10107000216020939D002091820030918300309365
:101080006500209364009093630080936200109247
:10109000AA001092A9001092AF0010928100109245
:1010A00080001092AC001092AB0080917F001F91E5
:1010B000089589E08EBD8FEA94E09BBD8ABD80E1F2
:1010C00089BF08958FEF88BB17BA85BB14BA82BB5E
:1010D00011BA82B395E0892782BB85B390E2892754
:1010E00085BB84B3892784BB089578941F920F929F
:1010F0000FB60F9211242F933F934F935F936F93EB
:101100007F938F939F93AF93BF93EF93FF938EDC67
:10111000FF91EF91BF91AF919F918F917F916F91CF
:101120005F914F913F912F910F900FBE0F901F90A5
:1011300018951F93CF93DF93162FC091D300D091B2
:10114000D400262F30E0C217D30708F41C2F2091BB
:10115000D600273031F42091D50030E02E533F4F98
:1011600007C02B3049F42091D50030E0225F3E4F7C
:10117000B901412F50E0F7D18091D500810F8093C4
:10118000D500C11BD109D093D400C093D300812FC7
:10119000DF91CF911F9108951F93CF93DF93EC01BF
:1011A000162F8091D3009091D400009709F44AC083
:1011B000262F30E08217930708F4182F8091D7006C
:1011C000843061F46091D500CE01019670E0412F2A
:1011D00050E0E2D1898180937B001FC0853081F48B
:1011E00021966091D500CE0170E0412F50E0D4D11E
:1011F000ECEBF0E086E0099001928150E1F70DC040
:10120000883059F46091D500CE01019670E0412FED
:1012100050E0C2D1898180937C008091D500810FFC
:101220008093D5002091D3003091D400211B310947
:101230003093D4002093D30081E02115310519F0BB
:1012400080E001C081E0DF91CF911F910895FC0102
:1012500080818076803209F07CC08181813009F004
:1012600045C082EC90E09093F3008093F2002281DD
:10127000223051F42093C200019660E070E041E01A
:1012800050E07AD182E00895233051F42093C200D7
:10129000019661E070E046E050E06ED187E008958D
:1012A0002730B9F42093C200DC011196E6E6F0E0A5
:1012B0008BE001900D928150E1F78BE090E09093EC
:1012C000D4008093D3001092D50087E08093D6009D
:1012D00034C02B30F1F58CEB92E09093D4008093E6
:1012E000D3001092D5002093D60027C0893089F50D
:1012F0002281243049F481E090E09093D4008093DF
:10130000D3001092D50017C0253051F486E090E04C
:101310009093D4008093D30081E08093D5000BC0DC
:10132000283069F487E08093D50081E090E09093C5
:10133000D4008093D3002093D7008FEF08952930F5
:1013400051F48DE790E068E070E041E050E024D196
:10135000FFCF80E0089580E008958091BB0080FD7C
:1013600003C01092D20005C08091D2008F5F80939D
:10137000D2009091D20080917C00981718F49923A4
:1013800019F008958093D20081E08093C200A3EC0D
:10139000B0E0E6EBF0E086E001900D928150E1F7DD
:1013A00001C0B7D88091E30084FFFBCF82EC90E0CE
:1013B00067E089D808952AE02093C2009093C40082
:1013C0008093C30001C0A5D88091E30084FFFBCFC8
:1013D00082EC90E063E077D808951F93DF93CF937A
:1013E0000F92CDB7DEB788E10FB6F89481BD11BC7E
:1013F0000FBE85EB90E068E070E041E050E0CCD0BB
:101400002EE088E190E00FB6F894A89581BD0FBE5C
:1014100021BD58DE86E0E6EBF0E0DF01982F1D925B
:101420009A95E9F7ECEBF0E0DF011D928A95E9F778
:1014300074DA3FDE889A198207C0A89587E99AE393
:101440000197F1F700C000008981815089838823CA
:10145000A1F7889897D97894CE01019660E070E062
:1014600041E050E089D089818F3F41F48BE790E0E3
:1014700060E070E041E050E08FD002C080937B00DC
:10148000CE01019667E070E041E050E075D08981BF
:101490008F3F41F48CE790E067E070E041E050E07E
:1014A0007BD002C080937C008CEB90E061E070E028
:1014B00046E050E061D010E2A89586EB90E030DA8B
:1014C0008823C9F18091BC0081508E3F20F5809126
:1014D0007B008823F1F086EB90E06CEB70E045E058
:1014E00050E034D00097A9F485B3812785BB08C0AC
:1014F000A8950FD8ABEDB5E01197F1F700C000004B
:10150000898181508983882399F785B3812785BB99
:1015100012C023DF10C086EB90E061E070E046E08F
:1015200050E03AD0ACEBB0E0E6EBF0E086E00190C2
:101530000D928150E1F7EDD7BFCFFB01DC0102C076
:1015400005900D9241505040D8F70895FB01DC0101
:1015500004C08D910190801921F441505040C8F78A
:10156000881B990B0895FB01DC0102C001900D92CC
:1015700041505040D8F70895DC01CB01FC01E199BE
:10158000FECF06C0FFBBEEBBE09A31960DB20D92C6
:1015900041505040B8F70895DC01CB0102C02D91B5
:1015A00005D041505040D8F70895262FE199FECF3D
:1015B0009FBB8EBB2DBB0FB6F894E29AE19A0FBE8B
:0815C00001960895F894FFCF95
:1015C8005AFFFFFFFFFF32302E30392E32303131D3
:0E15D8000001020304050708090A0B010501C2
:00000001FF
