:10000000F2C026C10BC10AC109C108C125C906C178
:1000100005C104C103C102C101C100C1FFC0FEC0CE
:10002000FDC0FCC0FBC00403090470037700770027
:1000300077002E006D0069006B0072006F00630096
:100040006F006E00740072006F006C006C00650041
:1000500072002E006E00650074002F0061007200B7
:100060007400690063006C00650073002F00550088
:10007000530042005F00490052005F0052006500DB
:100080006D006F00740065005F0052006500630042
:10009000650069007600650072002E03550053006C
:1000A00042002000490052002000520065006D000F
:1000B0006F00740065002000520065006300650059
:1000C000690076006500720012011001000000084E
:1000D000C016DF0509010102000109022200010129
:1000E00000800A0904000001030000000921010149
:1000F000000122620007058103080064010A0E0462
:1001000008040804080F14000F140001000203087B
:100110000B17030803080010102020010100020340
:10012000080B17030803080000000000010100038A
:1001300003080B160308030800101525250101000C
:1001400004040D0F26040D040D0C18000C180101F9
:100150000005010708110107010700101C283001E4
:10016000010007070B070B000000000107070D0D3A
:100170000000010802050F15020506090005050F1C
:100180000F01000005010B010000FFA10115002671
:10019000FF0075088501950609008200018502951A
:1001A000010900B20201850395060900B20201852A
:1001B0000495010900B20201850595060900B20205
:1001C00001850695020900B2020185079504090020
:1001D000B20201850895010900B202018509950165
:1001E0000900B20201C011241FBECFE5D4E0DEBF7A
:1001F000CDBF10E0A0E6B0E0ECEDF6E102C0059066
:100200000D92AE37B107D9F711E0AEE7B0E001C00B
:100210001D92AD30B107E1F76AD95ECAF1CEA82FC1
:10022000B92F80E090E041E050EA609530E009C0ED
:100230002D9182279795879510F084279527305E1A
:10024000C8F36F5FA8F30895EADF8D939D93089537
:10025000CF93CFB7CF93C395809BE9F7809B09C01D
:10026000809B07C0809B05C0809B03C0809B01C012
:10027000A3C0DF93C091F000DD27C950DF4F809B02
:1002800002C0DF91EBCF2F930F931F9300B32FEF9B
:1002900000FB20F94F933F9310B34FEF012700FB72
:1002A00021F93BE031C04E7F012F10B3216028C0FF
:1002B000102F4D7F2260000000B329C04B7F2460C7
:1002C000012F000010B32BC010B3477F28602AC055
:1002D0004F7E00B320612CC04F7D10B320622FC031
:1002E0004F7B00B3206432C0422700B349934FEFE5
:1002F0000000102710FB20F910B31570C9F1297FF9
:1003000091F2012700FB21F900B3237F89F23150DC
:1003100058F1102710FB22F910B3277E79F201273C
:1003200000FB23F92F7C81F200B3102710FB24F986
:100330002F7971F200C010B3012700FB25F92F734C
:1003400059F200C000B3102710FB26F9223040F20A
:1003500000C010B3012700FB27F9243028F64F779F
:10036000206810B30000F9CF10E41ABF002719C0AD
:100370003B503195C31BD04010E41ABF0881033CA9
:10038000F9F00B34E9F02091EE001981110F1213EE
:10039000EDCF4A81441F093641F10D3211F0013E83
:1003A00029F70093F5003F914F911F910F912F91E5
:1003B000DF91CAB7C6FD4FCFCF91CFBFCF91189570
:1003C0002091F500222379F31091F300112369F5B0
:1003D00034306AF13093F3002093EF001091F00075
:1003E0003BE0311B3093F00022C00091F30001305C
:1003F000E4F40AE54F7049F43091600034FD19C00F
:1004000000936000C7EDD0E018C03091E20034FDE9
:1004100010C00093E200C3EED0E00FC02795A8F40F
:100420005150A9F4220F0000F9CF4AE503C042ED74
:1004300001C0432FC4E1D0E032E011B31560909ABF
:1004400011BB02B320E415E05F93012756E002BB25
:10045000279520F4515021F4220FF9CF012756E0BF
:1004600000003B5A02BBD0F2279528F4515029F4E2
:10047000220F0000F9CF012756E0279502BB20F498
:10048000515021F4220FF9CF012756E0299133234F
:1004900002BB21F60A7F1091F400110FC651D04023
:1004A00002BB11F01093EE0010E41ABF016011B30B
:1004B0001A7F402F4A7F5F9100C000C002BB11BB72
:1004C00042BB71CF1F93162F2091E20024FF07C07B
:1004D0002091E30038E823272093E30003C02AE5B6
:1004E0002093E200DC01812F815090E08B519F4FDF
:1004F000E4EEF0E02D912193E817F907D9F784EEA7
:1005000090E0612FA1DE1C5F1093E2001F9108951F
:100510001F93CF93DF936091F300635067FDC4C0D6
:100520008091F000CCE0D0E0C81BD109C950DF4F6A
:100530008091EF008D3209F0A5C0683009F0B2C09B
:1005400083EC8093D7008AE58093600010927E0050
:100550008881807631F0CE0129D78F3F09F481C0A0
:1005600087C09A811092E0008981882331F410922B
:10057000E10020EE30E082E06FC0853019F4909306
:10058000F40067C0863009F04EC08B81813041F4A1
:1005900088EC90E09093F2008093F10082E13FC0FC
:1005A000823041F48AED90E09093F2008093F10064
:1005B00082E235C08330F1F4992341F486E290E081
:1005C0009093F2008093F10084E029C0913041F4CF
:1005D0008AE290E09093F2008093F10080E71FC0E0
:1005E0009230E1F48AE990E09093F2008093F10078
:1005F0008EE215C0813241F48CEE90E09093F200CF
:100600008093F10089E00BC0823241F484E891E0EC
:100610009093F2008093F10082E601C080E090E4C4
:1006200090937E0025C0883069F0893019F490934A
:10063000F6000FC08A3049F08B3059F48BE4809378
:10064000E30007C026EF30E002C020EE30E081E09A
:1006500003C020EE30E080E03093F2002093F10000
:1006600007C0988197FD8E8190E890937E0007C027
:100670009F81992321F49E81981708F4892F8093F4
:10068000610010C080917E0087FF0CC0CE0133D680
:100690008F3F21F48EE18093600004C0882311F025
:1006A000109261001092F3008091600084FF5BC0A3
:1006B000809161008F3F09F456C0182F893008F0EF
:1006C00018E0811B809361008091D70098E889270A
:1006D0008093D7001123B1F180917E0087FF08C07D
:1006E00088ED90E0612FDCD5182F8930B0F52AC055
:1006F0002091F1003091F200412F415086FF0EC051
:1007000050E0EA01C752DF4FF901A8EDB0E0849153
:100710008D933196AC17BD07D1F70CC0D90150E0CD
:10072000CA0187529F4FE8EDF0E06D916193E817A1
:10073000F907D9F74F5F5F4F420F531F5093F200F5
:100740004093F10088ED90E0612F7EDD1C5F1C304E
:1007500041F08FEF8093610004C08FEF80936100C0
:100760001EE11093600084E190B3957031F48150E4
:10077000D9F71092F4001092EE00DF91CF911F9103
:10078000089585B7826085BF8BB780648BBF8BE48B
:100790008093E3008AE58093E2000895E09185006C
:1007A00090918F00E91738F120919000E21718F529
:1007B00060919500282F30E0409182005091830095
:1007C000662381F06E2F70E0691B710902C0220F51
:1007D000331F6A95E2F7242B352B30938300209347
:1007E000820033C0440F551F422B532B509383007C
:1007F000409382002AC090919100E91730F1209136
:100800009200E21710F560919500282F30E040919A
:10081000800050918100662381F06E2F70E0691B8B
:10082000710902C0220F331F6A95E2F7242B352B82
:10083000309381002093800008C0440F551F422B45
:10084000532B509381004093800090918600933009
:10085000C9F4E13108F470C0E53108F06DC090E0F2
:10086000F0E0719702C0880F991FEA95E2F7209196
:10087000970030919800282B392B309398002093C3
:1008800097005AC0953009F057C09E2F945194306C
:10089000B0F4482F50E02E2F30E02850304002C0F6
:1008A000440F551F2A95E2F7209180003091810076
:1008B000242B352B309381002093800016C09E2F6F
:1008C0009851943080F4282F30E04E2F50E044515E
:1008D000504002C0220F331F4A95E2F790918400E6
:1008E000922B90938400E03338F52E2F30E0E6957C
:1008F000E695E695882381F0F0E0E156FF4F2770FA
:10090000307081E090E002C0880F991F2A95E2F7CD
:100910002081282B208310C0F0E0E156FF4F277084
:10092000307081E090E002C0880F991F2A95E2F7AD
:100930008095908189238083809185008F5F80934B
:100940008500089594988C980895FC0180917F000B
:10095000882309F48DC080919900833039F0873065
:1009600009F45BC0823009F061C027C080919C000F
:1009700090919D0020919C0030919D00892F992796
:100980002095309530708217930709F06DC08091E3
:100990009C0090919D00907090939D0080939C008E
:1009A00020919C0030919D008091A5009091A6001F
:1009B000982F8827822B932B2BC080919C0090919D
:1009C0009D0020919C0030919D00892F99272095B2
:1009D0003095307082179307B1F080919A00909112
:1009E0009B0027E88E3E920709F03EC08BE0809383
:1009F000990080919C0090919D00892F9927909358
:100A00009B0080939A0080919C0090919D00907033
:100A100090939D0080939C0009C080919A009091D2
:100A20009B008F7D90939B0080939A00809199000A
:100A3000808380919A0090919B0092838183809122
:100A40009C0090919D009483838380919E00858378
:100A500010929D0010929C0010929B0010929A00A0
:100A600010929E0081E001C080E010927F00089506
:100A700080E0089580B390917F00992309F0CDC361
:100A800080719091B300992309F056C09091B00005
:100A9000882321F49F5F9093B000BFC39923C9F0CE
:100AA00081E08093B3008093B1001092B200109265
:100AB00081001092800010928300109282001092A8
:100AC00084009FEF909385008093AF001092A9005F
:100AD000A4C38091AD009091AE002FEF8F3F92079D
:100AE00009F49BC301969093AE008093AD00809172
:100AF0006200909163004FEF8F3F940709F48DC31C
:100B00000196909363008093620062E08C3C9607AC
:100B100008F483C38091AA009091AB00009709F478
:100B20007CC31092AB001092AA008FEF9FEF9093BE
:100B300063008093620071C39091B100992309F41E
:100B4000E7C0882349F08091AF008F5F8093AF00AA
:100B50008C3908F41AC25FC12091B000822F8551F0
:100B6000873050F48091AF0090E08430910524F0FC
:100B7000883091050CF475C0822F8E53893390F420
:100B80008091AF0090E08E3191052CF08C3391056F
:100B90000CF46AC003C08F30910524F08F319105A9
:100BA0000CF465C0822F87528C3050F48091AF00D6
:100BB00090E08732910524F0833391050CF45AC0FC
:100BC000822F8B51813150F48091AF0090E08B31B6
:100BD000910524F08C3291050CF44FC0822F8D5179
:100BE0008A3050F48091AF0090E08E30910524F06F
:100BF000853191050CF444C0822F8750853018F060
:100C000087508930E8F48091AF00982F9750953045
:100C100018F097509930A0F48093A8002C502B30F6
:100C200018F08C508B3030F41092A70080E4809341
:100C3000A90003C081E08093A70062E671E025C0AF
:100C40002250243048F48091AF00982F9F50973065
:100C5000D0F086508430B8F01092B30060E070E0BD
:100C600014C06CEF70E011C06DE071E00EC06EE179
:100C700071E00BC06FE271E008C060E471E005C094
:100C800061E571E002C063E771E08091B300882301
:100C900029F086E890E041E150E0D9D41092850037
:100CA0004091960040FF1FC0809186008731D9F0A7
:100CB0008930C9F02091AF0080918800821758F4E4
:100CC00030E090E0880F991F8217930724F081E0AD
:100CD00041FF15C013C08091A700882389F481E0EB
:100CE00041FD0DC00BC080918600883049F4809191
:100CF000AF008F50873010F481E001C080E04EDDFE
:100D000081E08093B0001092AF001092B1003DC11D
:100D10009091B200992309F42BC1882309F482C071
:100D200060918500809193006817B9F490919400C8
:100D3000913099F48091960080FD0CC08091B000B4
:100D400090918B00891708F466C090918C009817D9
:100D500008F461C01092940018C19091AF009F5F99
:100D60009093AF0020918600213021F5292F30E0AB
:100D700029303105FCF06B30E8F0862F8F5F8093CF
:100D80009300862F90E00B97382F222780918200C6
:100D900090918300822B932B909383008093820009
:100DA00080919100860F8F5F8093920087E08093FF
:100DB000AF0038C02091960020FF1BC0492F50E0A3
:100DC00020918A0030E0220F331F421753078CF026
:100DD000462F50E0282F30E0225030404217530772
:100DE00044F020919400222321F481E08093940028
:100DF00019C09C3908F4C9C0262F30E090E0019753
:100E00002817390741F480919400882321F46F5FFB
:100E100060938500BAC01092B3001092B000109297
:100E2000AF00B3C09091960090FF3EC08091B0009B
:100E300020918800281790F481E091FD80E0AEDCDD
:100E40009091960081E091FF80E0A8DC909196005F
:100E500081E091FF80E08093A70021C090918700FE
:100E60008917C8F02091A80080918A00821778F431
:100E700030E090E0880F991F8217930744F081E0DB
:100E80009091A700911180E08093A70002C080910B
:100E9000A70084DC04C01092B3001092AF008091D0
:100EA000AF008093A80047C080918600833069F529
:100EB00080918500803149F58091B0008350863063
:100EC00008F050C02091AF00822F90E0873291054A
:100ED0006CF08333910554F41092B2001092980094
:100EE0001092970081E18093850040C08AE0809352
:100EF000860080E18093910080E28093920080934D
:100F000093002B502C3060F514C08091B00090916C
:100F10008700891798F090918800981778F0909141
:100F2000AF0020918900921748F020918A0029177C
:100F300028F081E033DC1092B20018C090918B0051
:100F4000891780F090918C00981760F08091AF0025
:100F500090918D00891730F090918E00981710F0C5
:100F600080E0E8CF1092B3001092AF0081E005C09E
:100F7000882331F48091B0008F5F8093B00005C06A
:100F800081E08093B2008093AF008091B30088230A
:100F900009F443C17091850080919300781709F09E
:100FA0003CC180919400882309F037C1809164008E
:100FB0009091650020918000309181008217930705
:100FC00071F44091AD005091AE0063E0403256079D
:100FD00030F44091AC004F5F4093AC0002C01092DF
:100FE000AC0060918600613031F44091AC0041501A
:100FF000423098F40DC0653029F44091AC00413086
:1010000061F406C06A3049F44091AC0040FF05C06D
:101010001092AE001092AD00BFC041E040937F003F
:101020006830A1F5C9018095909593704091AA0010
:101030005091AB0084179507B9F490938100809389
:1010400080001092AB001092AA006093990020914A
:1010500082003091830030939B0020939A009093FC
:101060009D0080939C0098C020FD09C03093AB0088
:101070002093AA00109263001092620004C01092A4
:10108000AB001092AA0010927F0086C0623021F55A
:10109000772309F051C02091AD003091AE0044E0BB
:1010A000203B3407B0F42091660030916700309304
:1010B0008300209382009093810080938000809130
:1010C0009E00816080939E001092AE001092AD0051
:1010D00033C010927F0030C0653071F590919F0051
:1010E0008091A0004091A100292F22952F709F7020
:1010F0002927982F9F70292782958F70282730E005
:10110000842F90E08F7090702817390711F010929B
:101110007F008091A20084279091A300892790915D
:10112000A400891711F010927F0080919E00909189
:101130008400892B80939E006093990080918200A7
:101140009091830090939B0080939A00623029F4E1
:1011500090936700809366000FC0673069F4209118
:10116000A90030E08091800090918100822B932B28
:101170009093810080938000809180009091810005
:1011800090939D0080939C0080919700909198008F
:101190009093A6008093A50080917F00882399F109
:1011A00080918000909181002091640030916500D1
:1011B00028173907C1F440916600509167002091CB
:1011C0008200309183004217530769F42091AD00EB
:1011D0003091AE0065E02C3D360728F420919E004A
:1011E000216020939E0020918200309183003093F3
:1011F00067002093660090936500809364001092CE
:10120000AE001092AD001092B300109281001092C7
:1012100080001092B0001092AF0080917F0008957E
:1012200089E08EBD8FEA94E09BBD8ABD80E189BFD5
:1012300008958FEF88BB17BA85BB14BA82BB11BA69
:1012400082B395E0892782BB85B390E2892785BB6D
:1012500084B3892784BB089578941F920F920FB6A8
:101260000F9211242F933F934F935F936F937F932C
:101270008F939F93AF93BF93EF93FF93FBDBFF910C
:10128000EF91BF91AF919F918F917F916F915F91FE
:101290004F913F912F910F900FBE0F901F90189577
:1012A0001F93CF93DF93162FC091D200D091D3001C
:1012B000262F30E0C217D30708F41C2F2091D50049
:1012C000273049F42091D40030E02E533F4FB9012C
:1012D000412F50E0D2D18091D400810F8093D4006F
:1012E000C11BD109D093D300C093D200812FDF91CD
:1012F000CF911F9108951F93CF93DF93EC01162F89
:101300008091D2009091D300009709F44AC0262F13
:1013100030E08217930708F4182F8091D6008430AC
:1013200061F46091D400CE01019670E0412F50E04D
:10133000BDD1898180937B001FC0853081F42196C7
:101340006091D400CE0170E0412F50E0AFD1EBEBC3
:10135000F0E086E0099001928150E1F70DC08830FD
:1013600059F46091D400CE01019670E0412F50E015
:101370009DD1898180937C008091D400810F8093DE
:10138000D4002091D2003091D300211B3109309339
:10139000D3002093D20081E02115310519F080E0BF
:1013A00001C081E0DF91CF911F910895FC01808100
:1013B0008076803209F06FC081818130C9F582EC7E
:1013C00090E09093F2008093F1002281223051F45A
:1013D0002093C200019660E070E041E050E056D1F9
:1013E00082E00895233051F42093C200019661E019
:1013F00070E046E050E04AD187E00895273009F0D8
:101400004AC02093C200DC011196E8E6F0E08BE0D0
:1014100001900D928150E1F78BE090E09093D30022
:101420008093D2001092D40087E08093D50027C02B
:10143000893089F52281243049F481E090E090934D
:10144000D3008093D2001092D40017C0253051F4FD
:1014500086E090E09093D3008093D20081E0809367
:10146000D4000BC0283069F487E08093D40081E079
:1014700090E09093D3008093D2002093D6008FEF1A
:101480000895293051F48DE790E068E070E041E084
:1014900050E00CD1FFCF80E0089580E00895809166
:1014A000BA0080FD03C01092C10005C08091C10048
:1014B0008F5F8093C1009091C10080917C0098174C
:1014C00018F4992319F008958093C10081E0809366
:1014D000C200A3ECB0E0E5EBF0E086E001900D92F5
:1014E0008150E1F782EC90E067E0ECD708951F931C
:1014F000DF93CF930F92CDB7DEB788E10FB6F894A4
:1015000081BD11BC0FBE84EB90E068E070E041E06B
:1015100050E0CCD02EE088E190E00FB6F894A8958A
:1015200081BD0FBE21BD85DE86E0E5EBF0E0DF0189
:10153000982F1D929A95E9F7EBEBF0E0DF011D92F1
:101540008A95E9F7FFD96CDE889A198207C0A895B9
:1015500087E99AE30197F1F700C000008981815083
:1015600089838823A1F788980CD97894CE010196B5
:1015700060E070E041E050E089D089818F3F41F424
:101580008BE790E060E070E041E050E08FD002C077
:1015900080937B00CE01019667E070E041E050E06F
:1015A00075D089818F3F41F48CE790E067E070E06F
:1015B00041E050E07BD002C080937C008BEB90E058
:1015C00061E070E046E050E061D010E2A89585EB64
:1015D00090E0BBD98823C9F18091BB0081508E3F38
:1015E00020F580917B008823F1F085EB90E06BEB98
:1015F00070E045E050E034D00097A9F485B381272E
:1016000085BB08C0A89584D7ABEDB5E01197F1F77D
:1016100000C00000898181508983882399F785B3B0
:10162000812785BB12C03BDF10C085EB90E061E0F5
:1016300070E046E050E03AD0ABEBB0E0E5EBF0E034
:1016400086E001900D928150E1F762D7BFCFFB0198
:10165000DC0102C005900D9241505040D8F708952A
:10166000FB01DC0104C08D910190801921F44150EF
:101670005040C8F7881B990B0895FB01DC0102C09C
:1016800001900D9241505040D8F70895DC01CB01F4
:10169000FC01E199FECF06C0FFBBEEBBE09A31969C
:1016A0000DB20D9241505040B8F70895DC01CB01C6
:1016B00002C02D9105D041505040D8F70895262FF3
:1016C000E199FECF9FBB8EBB2DBB0FB6F894E29A7B
:0C16D000E19A0FBE01960895F894FFCF38
:1016DC005AFFFFFFFFFFFFFF31322E30332E323027
:0E16EC0031330001020304050708090105015E
:00000001FF
