:103800000C94721C0C949C1E0C948F1C0C948F1C9A
:103810000C948F1C0C948F1C0C948F1C0C948F1C7C
:103820000C948F1C0C948F1C0C948F1C0C948F1C6C
:103830000C948F1C0C948F1C0C948F1C0C948F1C5C
:103840000C948F1C0C948F1C0C948F1C0C948F1C4C
:103850000C948F1C0C948F1C0C948F1C0C948F1C3C
:103860000C948F1C0C948F1C0403090412036F002A
:1038700062006400650076002E0061007400100391
:1038800048004900440042006F006F0074001201BC
:10389000100100000008C016DF050101010200014F
:1038A0000902220001010080320904000001030026
:1038B0000000092101010001222100070581030800
:1038C00000C80600FF0901A101150026FF007508C8
:1038D000850195060900B20201850295830900B2AF
:1038E0000201C00011241FBECFEFD4E0DEBFCDBF68
:1038F00011E0A0E0B1E0EAECFFE302C005900D9218
:10390000AA30B107D9F711E0AAE0B1E001C01D92D9
:10391000AB33B107E1F70E94911C0C94E31F0C94A8
:10392000001CDF93CF9300D000D0CDB7DEB788E086
:1039300090E00E94CD1F80930E0180FFCCC181E0FA
:1039400085BF82E085BF80916900836080936900B4
:10395000E89A509A20E048EB5BE0A895CA010197ED
:10396000F1F72150D1F750987894FF2400E063E0FC
:10397000E62E5EE7652E58E3752E4CE6442E48E3AE
:10398000542E38E6232E38E3332E2EEEC22E2FEFA0
:10399000D22E22EB38E3C20ED31E9EE8A92E98E366
:1039A000B92E82E0882E81E0982EA8959091210171
:1039B000292F235027FD26C180911E014CE050E0A5
:1039C000481B51094B5D5E4F5C834B8380911D0109
:1039D0008D3209F0B4C0283009F012C153EC509375
:1039E00011016AE56093000110920A01AB81BC816C
:1039F0002C91822F807611969C9111978823C1F08B
:103A0000993069F412968C91823031F410920D0144
:103A100027FD84C09FEF86C010920E016CC19130CB
:103A200009F069C19092200180921F0127E064C1D2
:103A3000EB81FC81828110921A01992331F410925A
:103A40001B018AE191E022E064C0953019F4809373
:103A500022015CC0963009F049C0AB81BC8113964D
:103A60008C91813029F4B0922001A0921F011BC0DB
:103A7000823031F4D0922001C0921F0122E232C084
:103A80008330D9F4EB81FC818281882331F4309238
:103A9000200120921F0124E025C0813031F4509292
:103AA000200140921F0122E11DC08230D1F47092AA
:103AB000200160921F0120E115C0813241F422EB08
:103AC00038E33093200120931F0129E00BC082329C
:103AD00041F442EC58E35093200140931F0121E24E
:103AE00001C020E050E450930A0106C1983019F457
:103AF00084E291E009C0993019F48093240106C052
:103B00009A3021F48AE191E021E003C08AE191E05A
:103B100020E09093200180931F01EEC0AB81BC8117
:103B200016969C9180E880930A0106C0EB81FC8187
:103B30009681921708F0922F9093010161C08091B5
:103B40000A0187FF5DC040910B0150910C015A831F
:103B5000498380910D01882389F4AB81BC81119642
:103B6000BC91B983EB81FC81F281FA832B813C818A
:103B70002C5F3F4F3C832B83292F2750322F380F48
:103B800030930D0189818F7751F4F894E981FA819E
:103B9000E0925700E895789407B600FCFDCFF894C2
:103BA00049815A81AB81BC818D919C9161E0FA0180
:103BB0000C0160935700E895112478943296FA83AB
:103BC000E98389818F7751F4F89465E0FA01609375
:103BD0005700E895789407B600FCFDCF225031F0ED
:103BE0008B819C8102969C838B83CCCFA981BA81E7
:103BF000B0930C01A0930B0137FF02C0109201019A
:103C0000109221018091000184FF4AC0809101013E
:103C10008F3F09F445C0182F893008F018E0811B48
:103C2000809301018091110198E889278093110107
:103C3000112341F120911F013091200180910A014F
:103C400086FF0DC0A2E1B1E080E090E0F901E80F4D
:103C5000F91FE491ED9301961817C1F708C0D90137
:103C6000912FE2E1F1E08D9181939150E1F71150B4
:103C7000812F90E01F5F0196820F931F9093200188
:103C800080931F0182E191E0612F0E94981E612FB5
:103C90006C5F6C3019F08FEF80930101609300012D
:103CA00094E189B1857031F49150D9F710922201D5
:103CB00010921C0180910E01882349F488E090E065
:103CC00060E00E94D51FFA9411F4015021F0809118
:103CD0000E0180FD6ACEF89481E180935700E8954B
:103CE0001DBA1092690081E085BF15BEE0910F01F9
:103CF000F0911001099520E0EB81FC8187818823F8
:103D000009F414CF18CFA82FB92F80E090E041E03C
:103D100050EA609530E009C02D91822797958795EC
:103D200010F084279527305EC8F36F5FA8F30895DD
:103D3000EADF8D939D930895CF93CFB7CF93C3952B
:103D4000489BE9F7489B09C0489B07C0489B05C0B2
:103D5000489B03C0489B01C0A3C0DF93C0911E01D4
:103D6000DD27CB5DDE4F489B02C0DF91EBCF2F9369
:103D70000F931F9309B12FEF00FB20F94F933F934F
:103D800019B14FEF012700FB21F93BE031C04E7F15
:103D9000012F19B1216028C0102F4D7F2260000033
:103DA00009B129C04B7F2460012F000019B12BC03D
:103DB00019B1477F28602AC04F7E09B120612CC00D
:103DC0004F7D19B120622FC04F7B09B1206432C0F2
:103DD000422709B149934FEF0000102710FB20F94B
:103DE00019B11570C9F1297F91F2012700FB21F962
:103DF00009B1237F89F2315058F1102710FB22F9C5
:103E000019B1277E79F2012700FB23F92F7C81F27B
:103E100009B1102710FB24F92F7971F200C019B1F4
:103E2000012700FB25F92F7359F200C009B11027B3
:103E300010FB26F9223040F200C019B1012700FB27
:103E400027F9243028F64F77206819B10000F9CF00
:103E500011E01CBB002719C03B503195C31BD0405B
:103E600011E01CBB0881033CF9F00B34E9F0209110
:103E70001C011981110F1213EDCF4A81441F09361D
:103E800041F10D3211F0013E29F7009323013F91DA
:103E90004F911F910F912F91DF91CCB3C0FD4FCF68
:103EA000CF91CFBFCF91189520912301222379F391
:103EB00010912101112321F5343022F13093210199
:103EC00020931D0110911E013BE0311B30931E0118
:103ED00019C00091210101309CF40AE54F7081F472
:103EE0003091000134FD10C000930001C1E1D1E028
:103EF0000FC02795A8F45150A9F4220F0000F9CF64
:103F00004AE503C042ED01C0432FC4E1D0E032E0F6
:103F10001AB11560589A1AB90BB120E415E05F93F5
:103F2000012756E00BB9279520F4515021F4220FB8
:103F3000F9CF012756E000003B5A0BB9D0F2279584
:103F400028F4515029F4220F0000F9CF012756E040
:103F500027950BB920F4515021F4220FF9CF0127F6
:103F600056E0299133230BB921F60A7F10912201E3
:103F7000110FC651D0400BB911F010931C0111E084
:103F80001CBB01601AB11A7F402F4A7F5F9100C0AD
:103F900000C00BB91AB94BB97ACFF999FECF92BDCF
:103FA00081BDF89A992780B50895262FF999FECFFB
:103FB0001FBA92BD81BD20BD0FB6F894FA9AF99A46
:0A3FC0000FBE01960895F894FFCF9C
:0A3FCA005AFF0180000040000000D3
:0400000300003800C1
:00000001FF
