:1018000050C072C269C068C067C066C065C064C0AD
:1018100063C062C061C060C05FC05EC05DC05CC0CC
:101820005BC05AC059C00403090412036F00620070
:101830006400650076002E0061007400100348000B
:101840004900440042006F006F0074001201100153
:1018500000000008C016DF050101010200010902B5
:101860002200010100803209040000010300000091
:10187000092101010001222100070581030800C898
:101880000600FF0901A101150026FF00750885016A
:1018900095060900B20201850295830900B2020192
:1018A000C00011241FBECFE5D4E0DEBFCDBF10E0E5
:1018B000A0E6B0E0E8E7FFE102C005900D92AA368D
:1018C000B107D9F710E0AAE6B0E001C01D92AB392C
:1018D000B107E1F702D04EC393CFDF93CF9300D08F
:1018E00000D0CDB7DEB788E090E02FD380936E00B4
:1018F00080FFCAC181E08BBF82E08BBF85B7836068
:1019000085BF8BB780648BBF889A20E048EB5BE093
:10191000A895CA010197F1F72150D1F788987894DA
:10192000FF2400E063E0E62E5CE3652E58E1752EAF
:101930004AE2442E48E1542E36E2232E38E1332E7B
:101940002EEEC22E2FEFD22E20E738E1C20ED31E8C
:101950009CE4A92E98E1B92E82E6882E80E0982E8C
:10196000A89590918100292F235027FD26C18091B1
:101970007E004CE050E0481B51094B575F4F5C83A1
:101980004B8380917D008D3209F0B4C0283009F07E
:1019900012C153EC509371006AE56093600010929D
:1019A0006A00AB81BC812C91822F807611969C912C
:1019B00011978823C1F0993069F412968C91823086
:1019C00031F410926D0027FD84C09FEF86C0109205
:1019D0006E0069C1913009F066C1909280008092DA
:1019E0007F0027E061C1EB81FC81828110927A0047
:1019F000992331F410927B008AE790E022E064C0E2
:101A0000953019F4809382005CC0963009F049C08B
:101A1000AB81BC8113968C91813029F4B092800007
:101A2000A0927F001BC0823031F4D0928000C0921F
:101A30007F0022E232C08330D9F4EB81FC818281C5
:101A4000882331F43092800020927F0024E025C06A
:101A5000813031F45092800040927F0022E11DC01D
:101A60008230D1F47092800060927F0020E115C036
:101A7000813241F420E738E13093800020937F00E9
:101A800029E00BC0823241F440E858E150938000D5
:101A900040937F0021E201C020E050E450936A00AF
:101AA00003C1983019F484E890E009C0993019F422
:101AB0008093840006C09A3021F48AE790E021E008
:101AC00003C08AE790E020E09093800080937F003D
:101AD000EBC0AB81BC8116969C9180E880936A0034
:101AE00006C0EB81FC819681921708F0922F9093AB
:101AF000610061C080916A0087FF5DC040916B000A
:101B000050916C005A83498380916D00882389F439
:101B1000AB81BC811196BC91B983EB81FC81F281D0
:101B2000FA832B813C812C5F3F4F3C832B83292FF1
:101B30002750322F380F30936D0089818F7351F405
:101B4000F894E981FA81E0925700E895789407B615
:101B500000FCFDCFF89449815A81AB81BC818D9105
:101B60009C9161E0FA010C0160935700E895112403
:101B700078943296FA83E98389818F7351F4F894CB
:101B800065E0FA0160935700E895789407B600FC89
:101B9000FDCF225031F08B819C8102969C838B83F8
:101BA000CCCFA981BA81B0936C00A0936B0037FFB2
:101BB00002C010926100109281008091600084FF49
:101BC00049C0809161008F3F09F444C0182F8930CB
:101BD00008F018E0811B809361008091710098E803
:101BE000892780937100112341F120917F0030916A
:101BF000800080916A0086FF0DC0A2E7B0E080E01F
:101C000090E0F901E80FF91FE491ED9301961817A0
:101C1000C1F708C0D901912FE2E7F0E08D918193DF
:101C20009150E1F71150812F90E01F5F0196820FD4
:101C3000931F9093800080937F0082E790E0612F54
:101C40004FD0612F6C5F6C3019F08FEF8093610083
:101C50006093600094E180B3857031F49150D9F7BE
:101C60001092820010927C0080916E00882341F4D3
:101C700088E090E060E071D1FA9411F4015021F015
:101C800080916E0080FD6CCEF89481E180935700C6
:101C9000E8951BBE15BE81E08BBF1BBEE0916F00B7
:101CA000F0917000099520E0EB81FC818781882309
:101CB00009F417CF1BCFA82FB92F80E090E041E0A7
:101CC00050EA609530E009C02D918227979587955D
:101CD00010F084279527305EC8F36F5FA8F308954E
:101CE000EADF8D939D930895CF93CFB7CF93C3959C
:101CF000809BE9F7809B09C0809B07C0809B05C043
:101D0000809B03C0809B01C0A3C0DF93C0917E0075
:101D1000DD27CB57DF4F809B02C0DF91EBCF2F93A6
:101D20000F931F9300B32FEF00FB20F94F933F93C6
:101D300010B34FEF012700FB21F93BE031C04E7F8C
:101D4000012F10B3216028C0102F4D7F22600000AA
:101D500000B329C04B7F2460012F000010B32BC0BB
:101D600010B3477F28602AC04F7E00B320612CC08B
:101D70004F7D10B320622FC04F7B00B3206432C070
:101D8000422700B349934FEF0000102710FB20F9C2
:101D900010B31570C9F1297F91F2012700FB21F9D9
:101DA00000B3237F89F2315058F1102710FB22F93C
:101DB00010B3277E79F2012700FB23F92F7C81F2F3
:101DC00000B3102710FB24F92F7971F200C010B373
:101DD000012700FB25F92F7359F200C000B310272B
:101DE00010FB26F9223040F200C010B3012700FB9F
:101DF00027F9243028F64F77206810B30000F9CF78
:101E000010E41ABF002719C03B503195C31BD040C6
:101E100010E41ABF0881033CF9F00B34E9F020917B
:101E20007C001981110F1213EDCF4A81441F09362E
:101E300041F10D3211F0013E29F7009383003F91EB
:101E40004F911F910F912F91DF91CAB7C6FD4FCFD0
:101E5000CF91CFBFCF91189520918300222379F3A2
:101E600010918100112321F5343022F1309381004B
:101E700020937D0010917E003BE0311B30937E006B
:101E800019C00091810001309CF40AE54F7081F483
:101E90003091600034FD10C000936000C1E7D0E0D5
:101EA0000FC02795A8F45150A9F4220F0000F9CFD4
:101EB0004AE503C042ED01C0432FC4E1D0E032E067
:101EC00011B31560909A11BB02B320E415E05F9343
:101ED000012756E002BB279520F4515021F4220F30
:101EE000F9CF012756E000003B5A02BBD0F22795FC
:101EF00028F4515029F4220F0000F9CF012756E0B1
:101F0000279502BB20F4515021F4220FF9CF01276D
:101F100056E02991332302BB21F60A7F10918200FB
:101F2000110FC651D04002BB11F010937C0010E499
:101F30001ABF016011B31A7F402F4A7F5F9100C022
:101F400000C002BB11BB42BB7ACFE199FECF9FBB61
:101F50008EBBE09A99278DB30895262FE199FECF85
:101F60009FBB8EBB2DBB0FB6F894E29AE19A0FBED1
:081F700001960895F894FFCFDB
:0A1F78005AFF0140000020000000A5
:0400000300001800E1
:00000001FF
