:100000000C9414010C944C010C9431010C943101AA
:100010000C9431010C9431010C9431010C94310198
:100020000C9431010C9431010C9431010C945F0952
:100030000C9431010C9431010C9431010C94310178
:100040000C9431010C9431010C9431010C94310168
:100050000C9431010C9431010C9431010C94310158
:100060000C9431010C9431010403090470037700EE
:10007000770077002E006D0069006B0072006F0042
:1000800063006F006E00740072006F006C006C0003
:10009000650072002E006E00650074002F00610084
:1000A00072007400690063006C00650073002F002B
:1000B0005500530042005F00490052005F005200AB
:1000C00065006D006F00740065005F005200650000
:1000D0006300650069007600650072002E0355001C
:1000E00053004200200049005200200052006500E9
:1000F0006D006F0074006500200052006500630011
:1001000065006900760065007200120110010000B0
:100110000008C016DF0509010102000109022200E2
:10012000010100800A090400000103000000092108
:100130000101000122620007058103080064010A31
:100140000E0408040804080F14000F140001000234
:1001500003080B17030803080010102020010100FA
:100160000203080B17030803080000000000010148
:10017000000303080B1603080308001015252501CA
:10018000010004040D0F26040D040D0C18000C18BA
:1001900001010005010708110107010700101C28D3
:1001A0003001010007070B070B00000000010707E3
:1001B0000D0D0000010802050F15020506090005D6
:1001C000050F0F01000005010B010000FFA1011543
:1001D0000026FF007508850195060900820001854B
:1001E0000295010900B20201850395060900B202D9
:1001F00001850495010900B20201850595060900F3
:10020000B20201850695020900B202018507950434
:100210000900B20201850895010900B202018509B1
:1002200095010900B20201C011241FBECFEFD4E036
:10023000DEBFCDBF11E0A0E0B1E0E2E8F7E102C02F
:1002400005900D92AE31B107D9F711E0AEE1B1E002
:1002500001C01D92AD3AB107E1F70E94B30A0C94B8
:10026000BF0B0C940000A82FB92F80E090E041E074
:1002700050EA609530E009C02D91822797958795C7
:1002800010F084279527305EC8F36F5FA8F30895B8
:10029000EADF8D939D930895CF93CFB7CF93C39506
:1002A000489BE9F7489B09C0489B07C0489B05C08D
:1002B000489B03C0489B01C0A3C0DF93C09190013D
:1002C000DD27C956DE4F489B02C0DF91EBCF2F934D
:1002D0000F931F9309B12FEF00FB20F94F933F932A
:1002E00019B14FEF012700FB21F93BE031C04E7FF0
:1002F000012F19B1216028C0102F4D7F226000000E
:1003000009B129C04B7F2460012F000019B12BC017
:1003100019B1477F28602AC04F7E09B120612CC0E7
:100320004F7D19B120622FC04F7B09B1206432C0CC
:10033000422709B149934FEF0000102710FB20F925
:1003400019B11570C9F1297F91F2012700FB21F93C
:1003500009B1237F89F2315058F1102710FB22F99F
:1003600019B1277E79F2012700FB23F92F7C81F256
:1003700009B1102710FB24F92F7971F200C019B1CF
:10038000012700FB25F92F7359F200C009B110278E
:1003900010FB26F9223040F200C019B1012700FB02
:1003A00027F9243028F64F77206819B10000F9CFDB
:1003B00011E01CBB002719C03B503195C31BD04036
:1003C00011E01CBB0881033CF9F00B34E9F02091EB
:1003D0008E011981110F1213EDCF4A81441F093686
:1003E00041F10D3211F0013E29F7009395013F9143
:1003F0004F911F910F912F91DF91CCB3C0FD4FCF43
:10040000CF91CFBFCF91189520919501222379F3F9
:1004100010919301112369F534306AF130939301FF
:1004200020938F01109190013BE0311B309390019C
:1004300022C0009193010130E4F40AE54F7049F4C1
:100440003091000134FD19C000930001C7E7D1E0ED
:1004500018C03091820134FD10C000938201C3E8BE
:10046000D1E00FC02795A8F45150A9F4220F000045
:10047000F9CF4AE503C042ED01C0432FC4E1D0E00B
:1004800032E01AB11560589A1AB90BB120E415E0A0
:100490005F93012756E00BB9279520F4515021F4C2
:1004A000220FF9CF012756E000003B5A0BB9D0F2DA
:1004B000279528F4515029F4220F0000F9CF012785
:1004C00056E027950BB920F4515021F4220FF9CFB3
:1004D000012756E0299133230BB921F60A7F1091A9
:1004E0009401110FC651D0400BB911F010938E0139
:1004F00011E01CBB01601AB11A7F402F4A7F5F9147
:1005000000C000C00BB91AB94BB971CF1F93162F99
:100510002091820124FF07C02091830138E823271E
:100520002093830103C02AE520938201DC01812FFF
:10053000815090E08B579E4FE4E8F1E02D9121939C
:10054000E817F907D9F784E891E0612F0E94480184
:100550001C5F109382011F9108951F93CF93DF9327
:1005600060919301635067FDC6C080919001CCE01B
:10057000D0E0C81BD109C956DE4F80918F018D3262
:1005800009F0A6C0683009F0B4C083EC809377010D
:100590008AE58093000110921E018881807639F0EF
:1005A000CE010E940E0A8F3F09F481C087C09A8154
:1005B000109280018981882331F41092810120E812
:1005C00031E082E06FC0853019F49093940167C0E8
:1005D000863009F04EC08B81813041F48AE091E091
:1005E000909392018093910182E13FC0823041F467
:1005F0008CE191E0909392018093910182E235C069
:100600008330F1F4992341F488E690E090939201CD
:100610008093910184E029C0913041F48CE690E010
:10062000909392018093910180E71FC09230E1F492
:100630008CED90E090939201809391018EE215C031
:10064000813241F48EE291E0909392018093910186
:1006500089E00BC0823241F486EC91E090939201E4
:100660008093910182E601C080E090E490931E01A6
:1006700025C0883069F0893019F4909396010FC035
:100680008A3049F08B3059F48BE48093830107C0A2
:1006900026E931E002C020E831E081E003C020E833
:1006A00031E080E0309392012093910107C098815E
:1006B00097FD8E8190E890931E0107C09F8199233A
:1006C00021F49E81981708F4892F8093010111C0AD
:1006D00080911E0187FF0DC0CE010E94B0098F3F9F
:1006E00021F48EE18093000104C0882311F0109260
:1006F0000101109293018091000184FF5DC08091FF
:1007000001018F3F09F458C0182F893008F018E014
:10071000811B809301018091770198E8892780935C
:1007200077011123B9F180911E0187FF09C088E785
:1007300091E0612F0E948409182F8930B8F52AC0F2
:100740002091910130919201412F415086FF0EC0BE
:1007500050E0EA01C758DE4FF901A8E7B1E0849103
:100760008D933196AC17BD07D1F70CC0D90150E07D
:10077000CA0187589E4FE8E7F1E06D916193E81751
:10078000F907D9F74F5F5F4F420F531F5093920104
:100790004093910188E791E0612F0E9448011C5F1E
:1007A0001C3041F08FEF8093010104C08FEF8093E4
:1007B00001011EE11093000184E199B1957031F4BB
:1007C0008150D9F71092940110928E01DF91CF9150
:1007D0001F910895E9E6F0E0808182608083E89AC5
:1007E0008BE4809383018AE5809382010895E091F0
:1007F000250190912F01E91738F120913001E2177E
:1008000018F560913501282F30E040912201509178
:100810002301662381F06E2F70E0691B710902C00D
:10082000220F331F6A95E2F7242B352B30932301D7
:100830002093220133C0440F551F422B532B50935A
:100840002301409322012AC090913101E91730F130
:1008500020913201E21710F560913501282F30E028
:100860004091200150912101662381F06E2F70E0AC
:10087000691B710902C0220F331F6A95E2F7242B0E
:10088000352B309321012093200108C0440F551FC0
:10089000422B532B5093210140932001909126012C
:1008A0009330C9F4E13108F470C0E53108F06DC04F
:1008B00090E0F0E0719702C0880F991FEA95E2F787
:1008C0002091370130913801282B392B3093380192
:1008D000209337015AC0953009F057C09E2F94518C
:1008E0009430B0F4482F50E02E2F30E028503040A4
:1008F00002C0440F551F2A95E2F720912001309144
:100900002101242B352B309321012093200116C087
:100910009E2F9851943080F4282F30E04E2F50E0D5
:100920004451504002C0220F331F4A95E2F7909184
:100930002401922B90932401E03338F52E2F30E0E0
:10094000E695E695E695882381F0F0E0E15CFE4FC0
:100950002770307081E090E002C0880F991F2A95BF
:10096000E2F72081282B208310C0F0E0E15CFE4FED
:100970002770307081E090E002C0880F991F2A959F
:10098000E2F78095908189238083809125018F5F94
:100990008093250108955C9854980895FC018091F6
:1009A0001F01882309F48DC080913901833039F00B
:1009B000873009F45BC0823009F061C027C08091A4
:1009C0003C0190913D0120913C0130913D01892FE6
:1009D00099272095309530708217930709F06DC0E4
:1009E00080913C0190913D01907090933D018093E6
:1009F0003C0120913C0130913D0180914501909155
:100A00004601982F8827822B932B2BC080913C0185
:100A100090913D0120913C0130913D01892F992712
:100A200020953095307082179307B1F080913A018C
:100A300090913B0127E88E3E920709F03EC08BE083
:100A40008093390180913C0190913D01892F992734
:100A500090933B0180933A0180913C0190913D013C
:100A6000907090933D0180933C0109C080913A01C0
:100A700090913B018F7D90933B0180933A0180914F
:100A80003901808380913A0190913B019283818367
:100A900080913C0190913D019483838380913E013C
:100AA000858310923D0110923C0110923B011092FF
:100AB0003A0110923E0181E001C080E010921F01D6
:100AC000089580E0089589B190911F01992309F05C
:100AD000D3C3807190915301992309F056C090912E
:100AE0005001882321F49F5F90935001C5C399233F
:100AF000C9F081E08093530180935101109252011B
:100B000010922101109220011092230110922201D3
:100B1000109224019FEF9093250180934F01109232
:100B20004901AAC380914D0190914E012FEF8F3F53
:100B3000920709F4A1C3019690934E0180934D0151
:100B400080910201909103014FEF8F3F940709F4C8
:100B500093C30196909303018093020162E08C3C61
:100B6000960708F489C380914A0190914B01009740
:100B700009F482C310924B0110924A018FEF9FEF4C
:100B8000909303018093020177C3909151019923BF
:100B900009F4E9C0882349F080914F018F5F809369
:100BA0004F018C3908F420C261C120915001822F7D
:100BB0008551873050F480914F0190E08430910549
:100BC00024F0883091050CF475C0822F8E53893340
:100BD00090F480914F0190E08E3191052CF08C3390
:100BE00091050CF46AC003C08F30910524F08F3159
:100BF00091050CF465C0822F87528C3050F480919F
:100C00004F0190E08732910524F0833391050CF475
:100C10005AC0822F8B51813150F480914F0190E066
:100C20008B31910524F08C3291050CF44FC0822F4A
:100C30008D518A3050F480914F0190E08E309105B3
:100C400024F0853191050CF444C0822F8750853003
:100C500018F087508930E8F480914F01982F975011
:100C6000953018F097509930A0F4809348012C509B
:100C70002B3018F08C508B3030F41092470180E408
:100C80008093490103C081E08093470164EA71E0E9
:100C900025C02250243048F480914F01982F9F5056
:100CA0009730D0F086508430B8F01092530160E055
:100CB00070E014C06EE371E011C06FE471E00EC02B
:100CC00060E671E00BC061E771E008C062E871E0C6
:100CD00005C063E971E002C065EB71E080915301EA
:100CE000882331F086E291E041E150E00E94780BE8
:100CF000109225014091360140FF1FC080912601CE
:100D00008731D9F08930C9F020914F0180912801B5
:100D1000821758F430E090E0880F991F82179307EC
:100D200024F081E041FF15C013C080914701882362
:100D300091F481E041FD0DC00BC080912601883007
:100D400051F480914F018F50873010F481E001C041
:100D500080E00E94F70381E08093500110924F01E0
:100D60001092510141C190915201992309F42FC170
:100D7000882309F482C060912501809133016817AE
:100D8000B9F490913401913099F48091360180FD4D
:100D90000CC08091500190912B01891708F466C016
:100DA00090912C01981708F461C0109234011CC175
:100DB00090914F019F5F90934F0120912601213028
:100DC00021F5292F30E029303105FCF06B30E8F0B7
:100DD000862F8F5F80933301862F90E00B97382FFB
:100DE00022278091220190912301822B932B9093B3
:100DF00023018093220180913101860F8F5F8093C0
:100E0000320187E080934F0138C02091360120FFE6
:100E10001BC0492F50E020912A0130E0220F331FE0
:100E2000421753078CF0462F50E0282F30E0225015
:100E300030404217530744F020913401222321F41B
:100E400081E08093340119C09C3908F4CDC0262F6D
:100E500030E090E001972817390741F48091340180
:100E6000882321F46F5F60932501BEC01092530167
:100E70001092500110924F01B7C09091360190FF2F
:100E800041C080915001209128012817A0F481E0F1
:100E900091FD80E00E94F7039091360181E091FF7F
:100EA00080E00E94F7039091360181E091FF80E09D
:100EB0008093470122C0909127018917D0F020919B
:100EC000480180912A01821778F430E090E0880F81
:100ED000991F8217930744F081E090914701911187
:100EE00080E08093470102C0809147010E94F70390
:100EF00004C01092530110924F0180914F018093D2
:100F0000480148C080912601833069F58091250110
:100F1000803149F5809150018350863008F051C0EE
:100F200020914F01822F90E0873291056CF083333E
:100F3000910554F410925201109238011092370129
:100F400081E18093250141C08AE08093260180E100
:100F50008093310180E280933201809333012B50E2
:100F60002C3068F514C080915001909127018917A9
:100F7000A0F090912801981780F090914F01209156
:100F80002901921750F020912A01291730F081E0B1
:100F90000E94F7031092520118C090912B018917FB
:100FA00080F090912C01981760F080914F01909102
:100FB0002D01891730F090912E01981710F080E0E4
:100FC000E7CF1092530110924F0181E005C08823B2
:100FD00031F4809150018F5F8093500105C081E012
:100FE0008093520180934F0180915301882309F42B
:100FF00043C17091250180913301781709F03CC1FC
:1010000080913401882309F037C1809104019091C7
:10101000050120912001309121018217930771F47D
:1010200040914D0150914E0163E04032560730F43B
:1010300040914C014F5F40934C0102C010924C0113
:1010400060912601613031F440914C0141504230B1
:1010500098F40DC0653029F440914C01413061F4A1
:1010600006C06A3049F440914C0140FF05C010921F
:101070004E0110924D01BFC041E040931F01683006
:10108000A1F5C90180959095937040914A015091C6
:101090004B0184179507B9F49093210180932001A7
:1010A00010924B0110924A01609339012091220164
:1010B0003091230130933B0120933A0190933D01FD
:1010C00080933C0198C020FD09C030934B012093D0
:1010D0004A01109203011092020104C010924B01C8
:1010E00010924A0110921F0186C0623021F57723C9
:1010F00009F051C020914D0130914E0144E0203B58
:101100003407B0F420910601309107013093230198
:1011100020932201909321018093200180913E0130
:10112000816080933E0110924E0110924D0133C0B8
:1011300010921F0130C0653071F590913F01809190
:10114000400140914101292F22952F709F7029273E
:10115000982F9F70292782958F70282730E0842F41
:1011600090E08F7090702817390711F010921F01CE
:1011700080914201842790914301892790914401F5
:10118000891711F010921F0180913E019091240166
:10119000892B80933E0160933901809122019091C7
:1011A000230190933B0180933A01623029F490939C
:1011B0000701809306010FC0673069F4209149014F
:1011C00030E08091200190912101822B932B90930C
:1011D0002101809320018091200190912101909321
:1011E0003D0180933C0180913701909138019093AB
:1011F00046018093450180911F01882399F18091D8
:1012000020019091210120910401309105012817BE
:101210003907C1F440910601509107012091220144
:10122000309123014217530769F420914D01309109
:101230004E0165E02C3D360728F420913E012160E7
:1012400020933E0120912201309123013093070128
:1012500020930601909305018093040110924E01A2
:1012600010924D0110925301109221011092200111
:101270001092500110924F0180911F01089589E052
:10128000809381008FEA94E0909389008093880096
:1012900082E080936F0008958FEF85B914B888B904
:1012A00017B88BB91AB88BB195E089278BB988B17B
:1012B00090E2892788B987B1892787B908957894FA
:1012C0001F920F920FB60F9211242F933F934F93BB
:1012D0005F936F937F938F939F93AF93BF93EF939E
:1012E000FF930E946305FF91EF91BF91AF919F9192
:1012F0008F917F916F915F914F913F912F910F90BF
:101300000FBE0F901F9018951F93CF93DF93162F4A
:10131000C0917201D0917301262F30E0C217D3071C
:1013200008F41C2F20917501273051F4209174018D
:1013300030E02E593E4FB901412F50E00E948E0BF4
:1013400080917401810F80937401C11BD109D093E6
:101350007301C0937201812FDF91CF911F91089586
:101360001F93CF93DF93EC01162F80917201909120
:101370007301009709F44DC0262F30E082179307C0
:1013800008F4182F80917601843069F4609174011B
:10139000CE01019670E0412F50E00E94A70B898199
:1013A00080931B0121C0853089F4219660917401DE
:1013B000CE0170E0412F50E00E94A70BEBE5F1E079
:1013C00086E0099001928150E1F70EC0883061F407
:1013D00060917401CE01019670E0412F50E00E94AF
:1013E000A70B898180931C0180917401810F8093E8
:1013F00074012091720130917301211B31093093E6
:1014000073012093720181E02115310519F080E00C
:1014100001C081E0DF91CF911F910895FC0180818F
:101420008076803209F072C081818130D9F582E600
:1014300091E090939201809391012281223059F49E
:1014400020936201019660E070E041E050E00E946C
:10145000970B82E00895233059F42093620101969E
:1014600061E070E046E050E00E94970B87E008954D
:10147000273009F04BC020936201DC011196E8E0AF
:10148000F1E08BE001900D928150E1F78BE090E06C
:1014900090937301809372011092740187E080939E
:1014A000750127C0893091F52281243049F481E00B
:1014B00090E090937301809372011092740117C0B1
:1014C000253051F486E090E090937301809372018F
:1014D00081E0809374010BC0283069F487E0809329
:1014E000740181E090E090937301809372012093E6
:1014F00076018FEF0895293059F48DE191E068E08D
:1015000070E041E050E00E94A70BFFCF80E008951B
:1015100080E0089580915A0180FD03C0109261011E
:1015200005C0809161018F5F80936101909161019D
:1015300080911C01981718F4992319F0089580934D
:10154000610181E080936201A3E6B1E0E5E5F1E0AD
:1015500086E001900D928150E1F782E691E067E02C
:101560000E94860208951F93DF93CF930F92CDB709
:10157000DEB788E10FB6F8948093600010926000A7
:101580000FBE84E591E068E070E041E050E00E9429
:10159000A70B2EE088E190E00FB6F894A895809311
:1015A00060000FBE209360000E944C0986E0E5E5D4
:1015B000F1E0DF01982F1D929A95E9F7EBE5F1E054
:1015C000DF011D928A95E9F70E94CB040E943F0932
:1015D000509A198207C0A89587E99AE30197F1F715
:1015E00000C000008981815089838823A1F7509829
:1015F0000E94EA037894CE01019660E070E041E039
:1016000050E00E94970B89818F3F49F48BE191E074
:1016100060E070E041E050E00E94A70B02C08093C0
:101620001B01CE01019667E070E041E050E00E94AE
:10163000970B89818F3F49F48CE191E067E070E07E
:1016400041E050E00E94A70B02C080931C018BE593
:1016500091E061E070E046E050E00E94970B10E2FC
:10166000A89585E591E00E94CE04882309F43DC049
:1016700080915B0181508E3F38F580911B0188235A
:1016800001F185E591E06BE571E045E050E00E94F5
:10169000810B0097B1F488B1812788B909C0A8955A
:1016A0000E94AD02ABEDB5E01197F1F700C000006C
:1016B000898181508983882391F788B1812788B9EE
:1016C00014C00E948A0A11C085E591E061E070E0D3
:1016D00046E050E00E94A70BABE5B1E0E5E5F1E0A4
:1016E00086E001900D928150E1F70E94AD02B8CFE3
:1016F000FB01DC0102C005900D9241505040D8F72B
:101700000895FB01DC0104C08D910190801921F442
:1017100041505040C8F7881B990B0895FB01DC012C
:1017200002C001900D9241505040D8F70895DC015D
:10173000CB01FC01F999FECF06C0F2BDE1BDF89ADC
:10174000319600B40D9241505040B8F70895DC0135
:10175000CB0103C02D910E94B20B41505040D0F7F5
:101760000895262FF999FECF1FBA92BD81BD20BDE5
:101770000FB6F894FA9AF99A0FBE01960895F89464
:02178000FFCF99
:101782005AFFFFFFFFFFFFFF31322E30332E323080
:0E1792003133000102030405070809010501B7
:00000001FF
