:100000000C9415010C944D010C9432010C943201A6
:100010000C9432010C9432010C9432010C94320194
:100020000C9432010C9432010C9432010C94A60809
:100030000C9432010C9432010C9432010C94320174
:100040000C9432010C9432010C9432010C94320164
:100050000C9432010C9432010C9432010C94320154
:100060000C9432010C9432010403090470037700EC
:10007000770077002E006D0069006B0072006F0042
:1000800063006F006E00740072006F006C006C0003
:10009000650072002E006E00650074002F00610084
:1000A00072007400690063006C00650073002F002B
:1000B0005500530042005F00490052005F005200AB
:1000C00065006D006F00740065005F005200650000
:1000D0006300650069007600650072002E0355001C
:1000E00053004200200049005200200052006500E9
:1000F0006D006F0074006500200052006500630011
:1001000065006900760065007200120110010000B0
:100110000008C016DF0508010102000109022200E3
:10012000010100800A090400000103000000092108
:100130000101000122750007058103080064010A1E
:100140000E0408040804080F14000F140001000234
:1001500002090919020902090010102020010100FA
:100160000202090919020902090000000000010148
:1001700000030308091403080207001015252501D0
:10018000010004040D0F26040D040D0C18000C18BA
:1001900001010005010708110107010700101C28D3
:1001A000300101000802040F1502040609000505CC
:1001B0000F0F01000005010B010000FFA101150058
:1001C00026FF007508850195060900820001850259
:1001D00095010900B20201850395060900B20201EA
:1001E000850495010900B20201850595060900B252
:1001F0000201850695020900B202018507950409EE
:1002000000B20201850895010900B2020185099535
:10021000010900B20201850A9502090082000185E8
:100220000B96BC020900B20201C011241FBECFEF21
:10023000D4E0DEBFCDBF11E0A0E0B1E0E2E7F6E13F
:1002400002C005900D92AE31B107D9F714E0AEE1CE
:10025000B1E001C01D92AA36B107E1F70E942B0A56
:100260000C94370B0C940000A82FB92F80E090E07D
:1002700041E050EA609530E009C02D9182279795C2
:10028000879510F084279527305EC8F36F5FA8F339
:100290000895EADF8D939D930895CF93CFB7CF93C1
:1002A000C395489BE9F7489B09C0489B07C0489BFA
:1002B00005C0489B03C0489B01C0A3C0DF93C09109
:1002C0009101DD27C856DE4F489B02C0DF91EBCF7E
:1002D0002F930F931F9309B12FEF00FB20F94F933A
:1002E0003F9319B14FEF012700FB21F93BE031C0EB
:1002F0004E7F012F19B1216028C0102F4D7F226041
:10030000000009B129C04B7F2460012F000019B102
:100310002BC019B1477F28602AC04F7E09B12061E8
:100320002CC04F7D19B120622FC04F7B09B12064D2
:1003300032C0422709B149934FEF0000102710FB4C
:1003400020F919B11570C9F1297F91F2012700FB3D
:1003500021F909B1237F89F2315058F1102710FBA0
:1003600022F919B1277E79F2012700FB23F92F7CAE
:1003700081F209B1102710FB24F92F7971F200C026
:1003800019B1012700FB25F92F7359F200C009B1FB
:10039000102710FB26F9223040F200C019B10127C6
:1003A00000FB27F9243028F64F77206819B10000A8
:1003B000F9CF11E01CBB002719C03B503195C31B7E
:1003C000D04011E01CBB0881033CF9F00B34E9F08C
:1003D00020918F011981110F1213EDCF4A81441F13
:1003E000093641F10D3211F0013E29F700939601D3
:1003F0003F914F911F910F912F91DF91CCB3C0FD91
:100400004FCFCF91CFBFCF91189520919601222346
:1004100079F310919401112369F534306AF1309326
:10042000940120939001109191013BE0311B309396
:10043000910122C0009194010130E4F40AE54F706B
:1004400049F43091000134FD19C000930001C8E760
:10045000D1E018C03091830134FD10C000938301B6
:10046000C4E8D1E00FC02795A8F45150A9F4220F99
:100470000000F9CF4AE503C042ED01C0432FC4E1BB
:10048000D0E032E01AB11560589A1AB90BB120E4E5
:1004900015E05F93012756E00BB9279520F45150E2
:1004A00021F4220FF9CF012756E000003B5A0BB987
:1004B000D0F2279528F4515029F4220F0000F9CFEB
:1004C000012756E027950BB920F4515021F4220F53
:1004D000F9CF012756E0299133230BB921F60A7F82
:1004E00010919501110FC651D0400BB911F0109326
:1004F0008F0111E01CBB01601AB11A7F402F4A7FA7
:100500005F9100C000C00BB91AB94BB971CF1F93EE
:10051000162F2091830124FF07C02091840138E821
:1005200023272093840103C02AE520938301DC0163
:10053000812F815090E08A579E4FE5E8F1E02D91A0
:100540002193E817F907D9F785E891E0612F0E9418
:1005500049011C5F109383011F9108951F93CF934E
:10056000DF9360919401635067FDC6C08091910153
:10057000CCE0D0E0C81BD109C856DE4F8091900175
:100580008D3209F0A6C0683009F0B4C083EC8093C6
:1005900078018AE58093000110921E01888180769F
:1005A00039F0CE010E945D098F3F09F481C087C0F8
:1005B0009A81109281018981882331F410928201FD
:1005C00021E831E082E06FC0853019F49093950105
:1005D00067C0863009F04EC08B81813041F48AE0DB
:1005E00091E0909393018093920182E13FC0823029
:1005F00041F48CE191E0909393018093920182E227
:1006000035C08330F1F4992341F488E690E090936B
:1006100093018093920184E029C0913041F48CE6EB
:1006200090E0909393018093920180E71FC09230F5
:10063000E1F48CED90E090939301809392018EE22F
:1006400015C0813241F48EE291E090939301809342
:10065000920189E00BC0823241F485EB91E09093E6
:1006600093018093920185E701C080E090E490932C
:100670001E0125C0883069F0893019F490939701E4
:100680000FC08A3049F08B3059F48BE48093840199
:1006900007C027E931E002C021E831E081E003C072
:1006A00021E831E080E0309393012093920107C06C
:1006B000988197FD8E8190E890931E0107C09F81DD
:1006C000992321F49E81981708F4892F80930101C2
:1006D00011C080911E0187FF0DC0CE010E94FF084E
:1006E0008F3F21F48EE18093000104C0882311F034
:1006F00010920101109294018091000184FF5DC06D
:10070000809101018F3F09F458C0182F893008F0FB
:1007100018E0811B809301018091780198E8892776
:10072000809378011123B9F180911E0187FF09C0E0
:1007300089E791E0612F0E94CB08182F8930B8F526
:100740002AC02091920130919301412F415086FFA0
:100750000EC050E0EA01C658DE4FF901A9E7B1E04A
:1007600084918D933196AC17BD07D1F70CC0D90198
:1007700050E0CA0186589E4FE9E7F1E06D91619320
:10078000E817F907D9F74F5F5F4F420F531F509398
:1007900093014093920189E791E0612F0E94490102
:1007A0001C5F1C3041F08FEF8093010104C08FEF7C
:1007B000809301011EE11093000184E199B19570CD
:1007C00031F48150D9F71092950110928F01DF9189
:1007D000CF911F910895E9E6F0E0808182608083E7
:1007E000E89A8BE4809384018AE5809383010895DD
:1007F000E091240190912E01E91738F120912F0109
:10080000E21718F560913401282F30E04091220161
:1008100050912301662381F06E2F70E0691B7109EE
:1008200002C0220F331F6A95E2F7242B352B309339
:1008300023012093220167C0440F551F422B532BE5
:1008400050932301409322015EC090913001E9173B
:1008500008F120913101E217E8F460913401282F6A
:1008600030E04091200150912101662351F06E2F1C
:1008700070E0691B710902C0220F331F6A95E2F70D
:100880003CC0440F551F422B532B509321014093E2
:10089000200139C0909125019330D1F4E13198F1D4
:1008A000E53188F5482F50E02E2F30E021513040BF
:1008B00002C0440F551F2A95E2F72091360130916E
:1008C0003701242B352B30933701209336011BC081
:1008D0009530C9F4E431B8F0E831A8F4482F50E07D
:1008E0002E2F30E02850304002C0440F551F2A956B
:1008F000E2F72091200130912101242B352B3093F8
:1009000021012093200190912501953049F5E03394
:1009100038F52E2F30E0E695E695E695882381F0B0
:10092000F0E0E25CFE4F2770307081E090E002C0A2
:10093000880F991F2A95E2F72081282B208310C069
:10094000F0E0E25CFE4F2770307081E090E002C082
:10095000880F991F2A95E2F78095908189238083DB
:10096000809124018F5F8093240108955C985498AE
:100970000895FC0180911F01882309F47EC08091B5
:100980003801823051F1833009F055C080913B012C
:1009900090913C0120913B0130913C01892F992796
:1009A0002095309530708217930709F062C08091CE
:1009B0003B0190913C01907090933C0180933B01EE
:1009C00020913B0130913C0180914401909145017F
:1009D000982F8827822B932B2AC080913B019091DE
:1009E0003C0120913B0130913C01892F99272095B2
:1009F0003095307082179307A9F08091390190915A
:100A00003A0127E88E3E9207A1F58BE080933801EA
:100A100080913B0190913C01892F992790933A0155
:100A20008093390180913B0190913C0190709093AB
:100A30003C0180933B018091380180838091390192
:100A400090913A019283818380913B0190913C0186
:100A50009483838380913D01858310923C011092A1
:100A60003B0110923A011092390110923D0181E050
:100A700001C080E010921F01089580E008951F9347
:100A800089B1182F107184FD0EC0209152012230BF
:100A900050F48091530190915401009721F42F5FFD
:100AA000209352015DC010925201112339F08091C0
:100AB000530190915401009709F452C08091530161
:100AC0009091540125E1803E920750F5FC0163E0CE
:100AD000F695E7956A95E1F7AC01477050701123E0
:100AE00069F0E255FE4F21E030E002C0220F331FD3
:100AF0004A95E2F74081422B40830DC0E255FE4FFC
:100B000021E030E002C0220F331F4A95E2F7209522
:100B100030812323208301969093540180935301C5
:100B20001123D1F080915001909151010196909341
:100B300051018093500143E0893E940788F08091F1
:100B4000530190915401845D93400E94170A1092C2
:100B500054011092530104C010925101109250019F
:100B600080911F01882309F0CDC280914F01882315
:100B700071F580914C01112321F48F5F80934C011A
:100B8000C1C28823A9F081E080934F0180934D0179
:100B900010924E0110922101109220011092230117
:100BA000109222019FEF9093240180934B01AAC2DF
:100BB0008091490190914A016FEF8F3F960709F4A8
:100BC000A1C2019690934A01809349019BC28091F2
:100BD0004D01882309F49EC0112349F080914B01F7
:100BE0008F5F80934B01863A08F46DC1F3C020916A
:100BF0004C01822F8551873050F480914B0190E059
:100C00008430910524F0883091050CF44DC0822F7A
:100C100085538B3488F480914B0190E08A319105A3
:100C20002CF0813491050CF442C003C08C30910546
:100C30001CF081329105F4F1822F87528C3048F4F8
:100C400080914B0190E0873291051CF08333910530
:100C5000A4F1822F8B51813148F480914B0190E0B7
:100C60008B3191051CF08C32910554F1822F8D51FE
:100C70008A3048F480914B0190E08E3091051CF051
:100C80008531910504F12250233048F480914B01C5
:100C9000982F9F509730D0F086508430B8F0109243
:100CA0004F0160E070E014C06EE371E011C06FE4CA
:100CB00071E00EC060E671E00BC061E771E008C052
:100CC00062E871E005C063E971E002C064EA71E0C6
:100CD00080914F01882331F085E291E041E150E0BD
:100CE0000E94F00A1092240180912501883051F46D
:100CF00080914B018F50873010F481E001C080E07B
:100D00000E94F80381E080934C0110924B011092F5
:100D10004D01D9C080914E01882309F4C7C0112329
:100D200009F45FC04091240180913201481799F481
:100D300090913301913079F480914C0190912A0186
:100D4000891708F447C090912B01981708F442C006
:100D500010923301B8C090914B019F5F90934B016B
:100D600020912501213021F5292F30E0293031054E
:100D7000FCF04B30E8F0842F8F5F80933201842F9A
:100D800090E00B97382F2227809122019091230128
:100D9000822B932B90932301809322018091300129
:100DA000840F8F5F8093310187E080934B0119C0DE
:100DB000963A08F488C0242F30E090E00197281775
:100DC000390741F480913301882321F44F5F409328
:100DD000240179C010924F0110924C0110924B01E6
:100DE00072C080912501833069F5809124018031A2
:100DF00049F580914C018350863008F051C0209114
:100E00004B01822F90E0873291056CF0833391057E
:100E100054F410924E01109237011092360181E184
:100E20008093240141C08AE08093250180E1809372
:100E3000300180E2809331018093320129502C30BF
:100E400048F514C080914C0190912601891780F0DB
:100E500090912701981760F090914B012091280103
:100E6000921730F020912901291710F081E013C06A
:100E700090912A018917A0F090912B01981780F08A
:100E800080914B0190912C01891750F090912D0188
:100E9000981730F080E00E94F80310924E0104C0D1
:100EA00010924F0110924B0181E005C0112331F4E3
:100EB00080914C018F5F80934C0105C081E080934D
:100EC0004E0180934B0180914F01882309F41AC190
:100ED0007091240180913201781709F013C180913B
:100EE0003301882309F00EC1809102019091030122
:100EF00020912001309121018217930771F44091D4
:100F0000490150914A0163E04032560730F4409164
:100F100048014F5F4093480102C010924801609120
:100F20002501613031F4409148014150423098F43C
:100F30000DC0653029F440914801413061F406C08C
:100F40006A3049F44091480140FF05C010924A01BF
:100F50001092490196C041E040931F01683029F585
:100F6000C901809590959370409146015091470139
:100F70008417950799F49093210180932001609341
:100F80003801209122013091230130933A012093BE
:100F9000390190933C0180933B0173C010921F0173
:100FA00030934701209346016CC0623009F57723E6
:100FB00009F047C02091490130914A0144E0203BAB
:100FC0003407E8F5209104013091050130932301A5
:100FD00020932201909321018093200180913D0173
:100FE000816080933D0110924A011092490129C00D
:100FF000653039F590913E0180913F01409140016B
:10100000292F22952F709F702927982F9F702927AD
:1010100082958F70282730E0842F90E08F70907039
:101020002817390711F010921F0180914101842780
:1010300090914201892790914301891711F01092F4
:101040001F016093380180912201909123019093B8
:101050003A0180933901623021F490930501809325
:101060000401809120019091210190933C01809393
:101070003B01809136019091370190934501809317
:10108000440180911F01882399F180912001909162
:101090002101209102013091030128173907C1F481
:1010A00040910401509105012091220130912301CA
:1010B0004217530769F42091490130914A0165E0D4
:1010C0002C3D360728F420913D01216020933D01FD
:1010D00020912201309123013093050120930401D6
:1010E000909303018093020110924A0110924901EA
:1010F00010924F01109221011092200110924C0188
:1011000010924B0180911F011F91089589E08093F7
:1011100081008FEA94E0909389008093880082E0B8
:1011200080936F0008958FEF85B914B888B917B808
:101130008BB91AB88BB195E089278BB988B190E249
:10114000892788B987B1892787B9089578941F922C
:101150000F920FB60F9211242F933F934F935F93EB
:101160006F937F938F939F93AF93BF93EF93FF936F
:101170000E943F05FF91EF91BF91AF919F918F9199
:101180007F916F915F914F913F912F910F900FBE83
:101190000F901F9018951F93CF93DF93162FC09138
:1011A0007301D0917401262F30E0C217D30708F4E1
:1011B0001C2F20917601273031F42091750130E009
:1011C0002E593E4F07C02B3051F42091750130E06D
:1011D00022553E4FB901412F50E00E94060B8091ED
:1011E0007501810F80937501C11BD109D0937401E2
:1011F000C0937301812FDF91CF911F9108951F93A9
:10120000CF93DF93EC01162F8091730190917401BD
:10121000009709F44DC0262F30E08217930708F499
:10122000182F80917701843069F460917501CE01A7
:10123000019670E0412F50E00E941F0B898180933E
:101240001B0121C0853089F4219660917501CE0182
:1012500070E0412F50E00E941F0BECE5F1E086E0CA
:10126000099001928150E1F70EC0883061F46091DD
:101270007501CE01019670E0412F50E00E941F0BD6
:10128000898180931C0180917501810F8093750184
:101290002091730130917401211B31093093740145
:1012A0002093730181E02115310519F080E001C020
:1012B00081E0DF91CF911F910895FC0180818076BC
:1012C000803209F080C08181813009F048C082E617
:1012D00091E090939301809392012281223059F4FE
:1012E00020936201019660E070E041E050E00E94CE
:1012F0000F0B82E00895233059F420936201019688
:1013000061E070E046E050E00E940F0B87E0089536
:101310002730B9F420936201DC011196E6E0F1E098
:101320008BE001900D928150E1F78BE090E090937B
:101330007401809373011092750187E080937601A8
:1013400035C02B3009F03FC08CEB92E090937401D4
:1013500080937301109275012093760127C0893024
:1013600091F52281243049F481E090E0909374015A
:10137000809373011092750117C0253051F486E0F7
:1013800090E0909374018093730181E080937501E4
:101390000BC0283069F487E08093750181E090E00C
:1013A0009093740180937301209377018FEF0895D8
:1013B000293059F48DE191E068E070E041E050E0BF
:1013C0000E941F0BFFCF80E0089580E00895809178
:1013D0005B0180FD03C01092720105C08091720113
:1013E0008F5F809372019091720180911C01981718
:1013F00018F4992319F008958093720181E0809385
:101400006201A3E6B1E0E6E5F1E086E001900D922D
:101410008150E1F702C00E94AE028091830184FFF7
:10142000FACF82E691E067E00E94870208952AE001
:1014300020936201909364018093630102C00E9433
:10144000AE028091830184FFFACF82E691E063E0EF
:101450000E94870208951F93DF93CF930F92CDB719
:10146000DEB788E10FB6F8948093600010926000B8
:101470000FBE85E591E068E070E041E050E00E9439
:101480001F0B2EE088E190E00FB6F894A8958093AA
:1014900060000FBE209360000E94930886E0E6E59E
:1014A000F1E0DF01982F1D929A95E9F7ECE5F1E064
:1014B000DF011D928A95E9F70E94B6040E94860812
:1014C000509A198207C0A89587E99AE30197F1F726
:1014D00000C000008981815089838823A1F750983A
:1014E0000E94EB037894CE01019660E070E041E049
:1014F00050E00E940F0B89818F3F49F48BE191E00E
:1015000060E070E041E050E00E941F0B02C0809359
:101510001B01CE01019667E070E041E050E00E94BF
:101520000F0B89818F3F49F48CE191E067E070E017
:1015300041E050E00E941F0B02C080931C018CE52B
:1015400091E061E070E046E050E00E940F0B10E295
:10155000A89586E591E00E94B904882309F43DC06E
:1015600080915C0181508E3F38F580911B0188236A
:1015700001F186E591E06CE571E045E050E00E9404
:10158000F90A0097B1F488B1812788B909C0A895F4
:101590000E94AE02ABEDB5E01197F1F700C000007C
:1015A000898181508983882391F788B1812788B9FF
:1015B00014C00E94E70911C086E591E061E070E087
:1015C00046E050E00E941F0BACE5B1E0E6E5F1E03B
:1015D00086E001900D928150E1F70E94AE02B8CFF3
:1015E000FB01DC0102C005900D9241505040D8F73C
:1015F0000895FB01DC0104C08D910190801921F454
:1016000041505040C8F7881B990B0895FB01DC013D
:1016100002C001900D9241505040D8F70895DC016E
:10162000CB01FC01F999FECF06C0F2BDE1BDF89AED
:10163000319600B40D9241505040B8F70895DC0146
:10164000CB0103C02D910E942A0B41505040D0F78E
:101650000895262FF999FECF1FBA92BD81BD20BDF6
:101660000FB6F894FA9AF99A0FBE01960895F89475
:02167000FFCFAA
:101672005AFFFFFFFFFF32302E30392E3230313128
:0E1682000001020304050708090A0B01050117
:00000001FF
