:100000000C940C010C9444010C9429010C942901CA
:100010000C9429010C9429010C9429010C942901B8
:100020000C9429010C9429010C9429010C942D089D
:100030000C9429010C9429010C9429010C94290198
:100040000C9429010C9429010C9429010C94290188
:100050000C9429010C9429010C9429010C94290178
:100060000C9429010C9429010403090470037700FE
:10007000770077002E006D0069006B0072006F0042
:1000800063006F006E00740072006F006C006C0003
:10009000650072002E006E00650074002F00610084
:1000A00072007400690063006C00650073002F002B
:1000B0005500530042005F00490052005F005200AB
:1000C00065006D006F00740065005F005200650000
:1000D0006300650069007600650072002E0355001C
:1000E00053004200200049005200200052006500E9
:1000F0006D006F0074006500200052006500630011
:1001000065006900760065007200120110010000B0
:100110000008C016DF0508010102000109022200E3
:10012000010100800A090400000103000000092108
:100130000101000122620007058103080064010A31
:100140000E0408040804080F14000F140001000234
:1001500002090919020902090010102020010100FA
:100160000202090919020902090000000000010148
:1001700000030308091403080207001015252501D0
:10018000010004040D0F26040D040D0C18000C18BA
:1001900001010005010708110107010700101C28D3
:1001A000300101000802040F1502040609000505CC
:1001B0000F0F01000005010B010000FFA101150058
:1001C00026FF007508850195060900820001850259
:1001D00095010900B20201850395060900B20201EA
:1001E000850495010900B20201850595060900B252
:1001F0000201850695020900B202018507950409EE
:1002000000B20201850895010900B2020185099535
:10021000010900B20201C00011241FBECFEFD4E0DB
:10022000DEBFCDBF11E0A0E0B1E0ECE2F5E102C03D
:1002300005900D92AC31B107D9F711E0ACE1B1E016
:1002400001C01D92A73AB107E1F70E9488090C94FA
:10025000940A0C940000A82FB92F80E090E041E0B0
:1002600050EA609530E009C02D91822797958795D7
:1002700010F084279527305EC8F36F5FA8F30895C8
:10028000EADF8D939D930895CF93CFB7CF93C39516
:10029000489BE9F7489B09C0489B07C0489B05C09D
:1002A000489B03C0489B01C0A3C0DF93C0918A0153
:1002B000DD27CF56DE4F489B02C0DF91EBCF2F9357
:1002C0000F931F9309B12FEF00FB20F94F933F933A
:1002D00019B14FEF012700FB21F93BE031C04E7F00
:1002E000012F19B1216028C0102F4D7F226000001E
:1002F00009B129C04B7F2460012F000019B12BC028
:1003000019B1477F28602AC04F7E09B120612CC0F7
:100310004F7D19B120622FC04F7B09B1206432C0DC
:10032000422709B149934FEF0000102710FB20F935
:1003300019B11570C9F1297F91F2012700FB21F94C
:1003400009B1237F89F2315058F1102710FB22F9AF
:1003500019B1277E79F2012700FB23F92F7C81F266
:1003600009B1102710FB24F92F7971F200C019B1DF
:10037000012700FB25F92F7359F200C009B110279E
:1003800010FB26F9223040F200C019B1012700FB12
:1003900027F9243028F64F77206819B10000F9CFEB
:1003A00011E01CBB002719C03B503195C31BD04046
:1003B00011E01CBB0881033CF9F00B34E9F02091FB
:1003C00088011981110F1213EDCF4A81441F09369C
:1003D00041F10D3211F0013E29F700938F013F9159
:1003E0004F911F910F912F91DF91CCB3C0FD4FCF53
:1003F000CF91CFBFCF91189520918F01222379F310
:1004000010918D01112369F534306AF130938D011B
:100410002093890110918A013BE0311B30938A01BE
:1004200022C000918D010130E4F40AE54F7049F4D7
:100430003091000134FD19C000930001C1E7D1E003
:1004400018C030917C0134FD10C000937C01CDE7D1
:10045000D1E00FC02795A8F45150A9F4220F000055
:10046000F9CF4AE503C042ED01C0432FC4E1D0E01B
:1004700032E01AB11560589A1AB90BB120E415E0B0
:100480005F93012756E00BB9279520F4515021F4D2
:10049000220FF9CF012756E000003B5A0BB9D0F2EA
:1004A000279528F4515029F4220F0000F9CF012795
:1004B00056E027950BB920F4515021F4220FF9CFC3
:1004C000012756E0299133230BB921F60A7F1091B9
:1004D0008E01110FC651D0400BB911F01093880155
:1004E00011E01CBB01601AB11A7F402F4A7F5F9157
:1004F00000C000C00BB91AB94BB971CF1F93162FAA
:1005000020917C0124FF07C020917D0138E823273A
:1005100020937D0103C02AE520937C01DC01812F1B
:10052000815090E081589E4FEEE7F1E02D912193AC
:10053000E817F907D9F78EE791E0612F0E94400193
:100540001C5F10937C011F9108951F93CF93DF933D
:1005500060918D01635067FDC6C080918A01CCE037
:10056000D0E0C81BD109CF56DE4F809189018D3272
:1005700009F0A6C0683009F0B4C083EC8093710123
:100580008AE58093000110921C018881807639F001
:10059000CE010E94DC088F3F09F481C087C09A8198
:1005A00010927A018981882331F410927B012AE725
:1005B00031E082E06FC0853019F490938E0167C0FE
:1005C000863009F04EC08B81813041F48AE091E0A1
:1005D00090938C0180938B0182E13FC0823041F483
:1005E0008CE191E090938C0180938B0182E235C085
:1005F0008330F1F4992341F488E690E090938C01E4
:1006000080938B0184E029C0913041F48CE690E026
:1006100090938C0180938B0180E71FC09230E1F4AE
:100620008CED90E090938C0180938B018EE215C04D
:10063000813241F48EE291E090938C0180938B01A2
:1006400089E00BC0823241F485EB91E090938C01FC
:1006500080938B0182E601C080E090E490931C01BE
:1006600025C0883069F0893019F4909390010FC04B
:100670008A3049F08B3059F48BE480937D0107C0B8
:1006800020E931E002C02AE731E081E003C02AE737
:1006900031E080E030938C0120938B0107C098817A
:1006A00097FD8E8190E890931C0107C09F8199234C
:1006B00021F49E81981708F4892F8093010111C0BD
:1006C00080911C0187FF0DC0CE010E947E088F3FE4
:1006D00021F48EE18093000104C0882311F0109270
:1006E000010110928D018091000184FF5DC0809115
:1006F00001018F3F09F458C0182F893008F018E025
:10070000811B809301018091710198E88927809372
:1007100071011123B9F180911C0187FF09C082E7A3
:1007200091E0612F0E945208182F8930B8F52AC035
:1007300020918B0130918C01412F415086FF0EC0DA
:1007400050E0EA01CD58DE4FF901A2E7B1E0849113
:100750008D933196AC17BD07D1F70CC0D90150E08D
:10076000CA018D589E4FE2E7F1E06D916193E81761
:10077000F907D9F74F5F5F4F420F531F50938C011A
:1007800040938B0182E791E0612F0E9440011C5F42
:100790001C3041F08FEF8093010104C08FEF8093F4
:1007A00001011EE11093000184E199B1957031F4CB
:1007B0008150D9F710928E0110928801DF91CF916C
:1007C0001F910895E9E6F0E0808182608083E89AD5
:1007D0008BE480937D018AE580937C010895E0910C
:1007E000220190912C01E91738F120912D01E21797
:1007F00018F560913201282F30E04091200150918E
:100800002101662381F06E2F70E0691B710902C01F
:10081000220F331F6A95E2F7242B352B30932101E9
:100820002093200167C0440F551F422B532B509338
:100830002101409320015EC090912E01E91708F13B
:1008400020912F01E217E8F460913201282F30E067
:1008500040911E0150911F01662351F06E2F70E0F0
:10086000691B710902C0220F331F6A95E2F73CC071
:10087000440F551F422B532B50931F0140931E01D1
:1008800039C0909123019330D1F4E13198F1E531F1
:1008900088F5482F50E02E2F30E02151304002C023
:1008A000440F551F2A95E2F720913401309135010C
:1008B000242B352B30933501209334011BC0953008
:1008C000C9F4E431B8F0E831A8F4482F50E02E2FF5
:1008D00030E02850304002C0440F551F2A95E2F7FF
:1008E00020911E0130911F01242B352B30931F01C5
:1008F00020931E0190912301953049F5E03338F59E
:100900002E2F30E0E695E695E695882381F0F0E01D
:10091000E45CFE4F2770307081E090E002C0880FE9
:10092000991F2A95E2F72081282B208310C0F0E040
:10093000E45CFE4F2770307081E090E002C0880FC9
:10094000991F2A95E2F78095908189238083809171
:1009500022018F5F8093220108955C985498089536
:10096000FC0180911D01882309F47EC0809136012D
:10097000823051F1833009F055C080913901909156
:100980003A012091390130913A01892F9927209518
:10099000309530708217930709F062C08091390159
:1009A00090913A01907090933A018093390120918F
:1009B000390130913A018091420190914301982F81
:1009C0008827822B932B2AC08091390190913A017C
:1009D0002091390130913A01892F9927209530953E
:1009E000307082179307A9F08091370190913801F8
:1009F00027E88E3E9207A1F58BE080933601809127
:100A0000390190913A01892F992790933801809369
:100A100037018091390190913A01907090933A0199
:100A200080933901809136018083809137019091C4
:100A30003801928381838091390190913A019483A6
:100A4000838380913B01858310923A011092390192
:100A5000109238011092370110923B0181E001C0E1
:100A600080E010921D01089580E0089589B1909171
:100A70001D01992309F0CEC2807190914D019923F7
:100A800071F590914A01882321F49F5F90934A0168
:100A9000C1C29923A9F081E080934D0180934B015D
:100AA00010924C0110921F0110921E011092210110
:100AB000109220019FEF9093220180934901AAC2D6
:100AC00080914701909148012FEF8F3F920709F4E1
:100AD000A1C2019690934801809347019BC29091D7
:100AE0004B01992309F49EC0882349F08091490164
:100AF0008F5F80934901863A08F46DC1F3C020915D
:100B00004A01822F8551873050F48091490190E04D
:100B10008430910524F0883091050CF44DC0822F6B
:100B200085538B3488F48091490190E08A31910596
:100B30002CF0813491050CF442C003C08C30910537
:100B40001CF081329105F4F1822F87528C3048F4E9
:100B50008091490190E0873291051CF08333910523
:100B6000A4F1822F8B51813148F48091490190E0AA
:100B70008B3191051CF08C32910554F1822F8D51EF
:100B80008A3048F48091490190E08E3091051CF044
:100B90008531910504F12250233048F480914901B8
:100BA000982F9F509730D0F086508430B8F0109234
:100BB0004D0160E070E014C06EE371E011C06FE4BD
:100BC00071E00EC060E671E00BC061E771E008C043
:100BD00062E871E005C063E971E002C064EA71E0B7
:100BE00080914D01882331F083E291E041E150E0B2
:100BF0000E944D0A1092220180912301883051F405
:100C0000809149018F50873010F481E001C080E06D
:100C10000E94EF0381E080934A01109249011092F3
:100C20004B01D9C090914C01992309F4C7C0882386
:100C300009F45FC04091220180913001481799F476
:100C400090913101913079F480914A01909128017D
:100C5000891708F447C090912901981708F442C0F9
:100C600010923101B8C0909149019F5F9093490162
:100C700020912301213021F5292F30E02930310541
:100C8000FCF04B30E8F0842F8F5F80933001842F8D
:100C900090E00B97382F222780912001909121011D
:100CA000822B932B909321018093200180912E0120
:100CB000840F8F5F80932F0187E08093490119C0D3
:100CC000963A08F488C0242F30E090E00197281766
:100CD000390741F480913101882321F44F5F40931B
:100CE000220179C010924D0110924A0110924901DF
:100CF00072C080912301833069F580912201803197
:100D000049F580914A018350863008F051C0209106
:100D10004901822F90E0873291056CF08333910571
:100D200054F410924C01109235011092340181E17B
:100D30008093220141C08AE08093230180E1809367
:100D40002E0180E280932F018093300129502C30B6
:100D500048F514C080914A0190912401891780F0D0
:100D600090912501981760F09091490120912601FA
:100D7000921730F020912701291710F081E013C05D
:100D8000909128018917A0F090912901981780F07F
:100D90008091490190912A01891750F090912B017F
:100DA000981730F080E00E94EF0310924C0104C0CD
:100DB00010924D011092490181E005C0882331F461
:100DC00080914A018F5F80934A0105C081E0809342
:100DD0004C018093490180914D01882309F41AC187
:100DE0007091220180913001781709F013C1809130
:100DF0003101882309F00EC1809102019091030115
:100E000020911E0130911F018217930771F44091C8
:100E100047015091480163E04032560730F4409159
:100E200046014F5F4093460102C010924601609117
:100E30002301613031F4409146014150423098F431
:100E40000DC0653029F440914601413061F406C07F
:100E50006A3049F44091460140FF05C010924801B4
:100E60001092470196C041E040931D01683029F57A
:100E7000C90180959095937040914401509145012E
:100E80008417950799F490931F0180931E01609336
:100E900036012091200130912101309338012093B7
:100EA000370190933A018093390173C010921D016C
:100EB00030934501209344016CC0623009F57723DB
:100EC00009F047C0209147013091480144E0203BA0
:100ED0003407E8F520910401309105013093210198
:100EE0002093200190931F0180931E0180913B016C
:100EF000816080933B01109248011092470129C004
:100F0000653039F590913C0180913D0140913E0161
:100F1000292F22952F709F702927982F9F7029279E
:100F200082958F70282730E0842F90E08F7090702A
:100F30002817390711F010921D0180913F01842775
:100F400090914001892790914101891711F01092E9
:100F50001D016093360180912001909121019093B1
:100F6000380180933701623021F49093050180931A
:100F7000040180911E0190911F0190933A0180938A
:100F80003901809134019091350190934301809310
:100F9000420180911D01882399F180911E01909159
:100FA0001F01209102013091030128173907C1F474
:100FB00040910401509105012091200130912101BF
:100FC0004217530769F4209147013091480165E0C9
:100FD0002C3D360728F420913B01216020933B01F2
:100FE00020912001309121013093050120930401CB
:100FF00090930301809302011092480110924701DF
:1010000010924D0110921F0110921E0110924A0180
:101010001092490180911D01089589E0809381001B
:101020008FEA94E0909389008093880082E0809317
:101030006F0008958FEF85B914B888B917B88BB9C8
:101040001AB88BB195E089278BB988B190E28927CE
:1010500088B987B1892787B9089578941F920F922C
:101060000FB60F9211242F933F934F935F936F937B
:101070007F938F939F93AF93BF93EF93FF930E94C0
:101080003605FF91EF91BF91AF919F918F917F9125
:101090006F915F914F913F912F910F900FBE0F90E5
:1010A0001F9018951F93CF93DF93162FC0916C015B
:1010B000D0916D01262F30E0C217D30708F41C2F02
:1010C00020916F01273051F420916E0130E0245AB5
:1010D0003E4FB901412F50E00E94630A80916E019A
:1010E000810F80936E01C11BD109D0936D01C09314
:1010F0006C01812FDF91CF911F9108951F93CF93A2
:10110000DF93EC01162F80916C0190916D01009797
:1011100009F44DC0262F30E08217930708F4182FEA
:1011200080917001843069F460916E01CE01019666
:1011300070E0412F50E00E947C0A89818093190160
:1011400021C0853089F4219660916E01CE0170E056
:10115000412F50E00E947C0AE5E5F1E086E009902D
:1011600001928150E1F70EC0883061F460916E0108
:10117000CE01019670E0412F50E00E947C0A8981E7
:1011800080931A0180916E01810F80936E012091EE
:101190006C0130916D01211B310930936D01209359
:1011A0006C0181E02115310519F080E001C081E07A
:1011B000DF91CF911F910895FC018081807680326C
:1011C00009F072C081818130D9F58CE591E090936E
:1011D0008C0180938B012281223059F420935C0191
:1011E000019660E070E041E050E00E946C0A82E00D
:1011F0000895233059F420935C01019661E070E07A
:1012000046E050E00E946C0A87E00895273009F01C
:101210004BC020935C01DC011196E6E0F1E08BE02D
:1012200001900D928150E1F78BE090E090936D0179
:1012300080936C0110926E0187E080936F0127C04C
:10124000893091F52281243049F481E090E0909337
:101250006D0180936C0110926E0117C0253051F41E
:1012600086E090E090936D0180936C0181E0809323
:101270006E010BC0283069F487E080936E0181E035
:1012800090E090936D0180936C01209370018FEF3B
:101290000895293059F48BE191E068E070E041E075
:1012A00050E00E947C0AFFCF80E0089580E008951E
:1012B0008091540180FD03C010925B0105C08091B4
:1012C0005B018F5F80935B0190915B0180911A01BC
:1012D000981718F4992319F0089580935B0181E021
:1012E00080935C01ADE5B1E0EFE4F1E086E00190D0
:1012F0000D928150E1F702C00E94A50280917C010D
:1013000084FFFACF8CE591E067E00E947E020895A9
:101310001F93DF93CF930F92CDB7DEB788E10FB65F
:10132000F89480936000109260000FBE8EE491E00C
:1013300068E070E041E050E00E947C0A2EE088E125
:1013400090E00FB6F894A895809360000FBE2093AC
:1013500060000E941A0886E0EFE4F1E0DF01982FB8
:101360001D929A95E9F7E5E5F1E0DF011D928A9576
:10137000E9F70E94AD040E940D08509A198207C037
:10138000A89587E99AE30197F1F700C000008981E9
:10139000815089838823A1F750980E94E2037894B2
:1013A000CE01019660E070E041E050E00E946C0ADE
:1013B00089818F3F49F489E191E060E070E041E08C
:1013C00050E00E947C0A02C080931901CE01019670
:1013D00067E070E041E050E00E946C0A89818F3F35
:1013E00049F48AE191E067E070E041E050E00E945A
:1013F0007C0A02C080931A0185E591E061E070E00B
:1014000046E050E00E946C0A10E2A8958FE491E05B
:101410000E94B004882309F43DC080915501815099
:101420008E3F38F580911901882301F18FE491E016
:1014300065E571E045E050E00E94560A0097B1F47E
:1014400088B1812788B909C0A8950E94A502ABED93
:10145000B5E01197F1F700C00000898181508983C0
:10146000882391F788B1812788B914C00E94580950
:1014700011C08FE491E061E070E046E050E00E942E
:101480007C0AA5E5B1E0EFE4F1E086E001900D9281
:101490008150E1F70E94A502B8CFFB01DC0102C038
:1014A00005900D9241505040D8F70895FB01DC01A2
:1014B00004C08D910190801921F441505040C8F72B
:1014C000881B990B0895FB01DC0102C001900D926D
:1014D00041505040D8F70895DC01CB01FC01F99947
:1014E000FECF06C0F2BDE1BDF89A319600B40D9270
:1014F00041505040B8F70895DC01CB0103C02D9155
:101500000E94870A41505040D0F70895262FF9993C
:10151000FECF1FBA92BD81BD20BD0FB6F894FA9AD6
:0C152000F99A0FBE01960895F894FFCFD1
:10152C005AFFFFFFFFFF32302E30392E323031316F
:0C153C0000010203040507080901050175
:00000001FF
